:100000000C9442000C946A000C946A000C946A00F0
:100010000C946A000C946A000C946A000C946A00B8
:100020000C946A000C94610D0C948A0D0C94B30D21
:100030000C94570E0C94DC0D0C94050E0C942E0EA3
:100040000C94E60C0C940F0D0C94380D0C946A0073
:100050000C94010A0C94B4070C946A000C946A0086
:100060000C946A000C946A000C946A000C946A0068
:100070000C94D6090C9402080C946A0018042C0AFB
:10008000E40F4D0411241FBECFEFD0E1DEBFCDBF82
:1000900011E0A0E0B1E0ECEEF7E202C005900D92B5
:1000A000AA3AB107D9F713E0AAEAB1E001C01D925C
:1000B000AA33B107E1F710E0C2E8D0E004C022970C
:1000C000FE010E944C11CC37D107C9F70E94FB06F4
:1000D0000C94E9130C9400008BEA91E00E94FE0A54
:1000E0008AEF91E00E94FE0A83EF91E00E94FE0AEF
:1000F00088E092E00E94FE0A81E092E00E94FE0AFF
:100100008CEE91E00C94FE0A0F931F93CF93DF9334
:10011000EB018A0142E0BC018DE00E94360A42E018
:10012000BE018CE00E94360A42E0B8018AE0DF910D
:10013000CF911F910F910C94360AEF920F93E12CFF
:1001400001E028E040E855E260E070E084E792E0FA
:100150000E94D4086EE271E08BEA91E00E94AD0B40
:100160001092E40181E08093E6018093E501109212
:10017000D6011092AA011092E70128E040E855E26A
:1001800060E070E084E792E00E94D4081092DF0102
:10019000209A08983D9A3C9A3A9A3B984FEF50E043
:1001A00060E070E080E090E00E94840061E0809177
:1001B0001B010E947B0660E0809119010E947B0672
:1001C000219A28E040E855E260E070E084E792E0A0
:1001D0000E94D4080F91EF90089540E050E060E055
:1001E00070E08FEF90E00E948400299A089581E0EA
:1001F0008093E40140E050E06FEF70E080E090E039
:100200000C9484001092E4014FEF50E060E070E045
:1002100080E090E00C948400882311F0299A0895DE
:100220002998089581110C94ED004FEF50E060E0A3
:1002300070E080E090E00E94840080E00C940C016B
:100240000F931F93CF93DF93CDB7DEB72E970FB6E3
:10025000F894DEBF0FBECDBF8C016FE171E0CE011F
:1002600008960E946F0B61E070E0CE0108960E9434
:10027000130C63E271E0CE0101960E946F0BB8018E
:10028000CE0101960E94450CBC01CE0108960E9449
:100290000C0CCE0101960E94FE0ABE01685F7F4FE2
:1002A00084E792E00E94EA0ACE0108960E94FE0AC4
:1002B0002E960FB6F894DEBF0FBECDBFDF91CF9163
:1002C0001F910F9108958F929F92AF92BF92FF92CC
:1002D0000F931F93CF93DF93CDB7DEB727970FB65A
:1002E000F894DEBF0FBECDBF8C010E94470660931D
:1002F000D7017093D8018093D9019093DA010E94BD
:1003000047066093E0017093E1018093E2019093CE
:10031000E301FF24F3947AC00E9447068090D7013E
:100320009090D801A090D901B090DA0168197909AC
:100330008A099B096033754781059105D0F00E94B9
:10034000ED008091E501811166C00E944706809012
:10035000E0019090E101A090E201B090E301681902
:1003600079098A099B09683873418105910508F06C
:1003700052C00130110561F4339948C0F092E50193
:100380000E94020180E00E9412011092DF013AC037
:1003900001151105D9F582EB91E00E9465048823CF
:1003A00081F0682FCE0101960E94C70BBE016F5FDE
:1003B0007F4F8BEA91E00E940C0CCE0101960E94C7
:1003C000FE0A6BE271E0CE0101960E946F0BBE0146
:1003D0006F5F7F4F8BEA91E00E949D0CB82ECE019B
:1003E00001960E94FE0ABB2089F080E00E94120163
:1003F0000E940201F092E5016EE271E08BEA91E069
:100400000E94AD0B1092D1011092D0018091E401B5
:10041000811182CF1BC01092E5010E9447066093B4
:10042000E0017093E1018093E2019093E30163EFB7
:1004300071E0CE0101960E94A30BCE0101960E94AD
:100440002001CE0101960E94FE0A93CF27960FB697
:10045000F894DEBF0FBECDBFDF91CF911F910F91FA
:10046000FF90BF90AF909F908F9008950F931F9330
:10047000CF93DF93CDB7DEB727970FB6F894DEBFE3
:100480000FBECDBF2AE939E949E95FE36091E80190
:100490007091E9018091EA019091EB010E94F30FC4
:1004A000181624F081E08093E70105C01092E7015F
:1004B00081E08093E6018091E7018823C9F0289AC2
:1004C0000E9447060091DB011091DC012091DD01C3
:1004D0003091DE01601B710B820B930B603375470B
:1004E0008105910538F48091E601811103C026C091
:1004F000289824C01092E6010E9447066093DB0111
:100500007093DC018093DD019093DE0168E072E07E
:10051000CE0101960E94A30BCE0101960E942001FC
:10052000CE0101960E94FE0A299A60ED77E080E0F4
:1005300090E00E94590680E00E940C0127960FB6B9
:10054000F894DEBF0FBECDBFDF91CF911F910F9109
:1005500008950F931F93CF93DF93CDB7DEB72797FF
:100560000FB6F894DEBF0FBECDBF88E10E94E20552
:10057000BC01882777FD8095982F0E94F90F2DECFC
:100580003CEC4CEA50E40E94A91020E030E040E846
:100590005AE30E94A9106093E8017093E9018093E7
:1005A000EA019093EB010E943602809119010E94AA
:1005B000A906082F10E01093D3010093D201013057
:1005C0001105F1F461E080911B010E94CD0680913C
:1005D000D4019091D501892B11F56CEE71E0CE011B
:1005E00001960E94A30BCE0101960E942001CE012C
:1005F00001960E94FE0A1093D5010093D4010FC00A
:1006000060E080911B010E94CD068091D401909101
:10061000D501019721F41092D5011092D401809157
:10062000DF01811118C0339B47C00E9447066093C9
:10063000D7017093D8018093D9019093DA0181E0BA
:100640008093DF010E94F70081E090E00E94630147
:100650001092D60131C0339B24C00E9447060091FE
:10066000D7011091D8012091D9013091DA01601B96
:10067000710B820B930B683B7B4081059105E0F089
:100680000E94ED0063EF71E0CE0101960E94A30B82
:10069000CE0101960E942001CE0101960E94FE0A21
:1006A0000BC00E94020180E00E9412011092DF0143
:1006B0001092D1011092D0018091AA01811107C03E
:1006C00082EB91E00E946504882311F101C0FFCF05
:1006D000682FCE0101960E94C70BBE016F5F7F4F4E
:1006E0008BEA91E00E940C0CCE0101960E94FE0A5A
:1006F00040E050E06FEF70E080E090E00E94840006
:100700004FEF50E060E070E080E090E00E948400F5
:100710006DE271E0CE0101960E946F0BBE016F5F2A
:100720007F4F8BEA91E00E949D0C882361F011E0DD
:100730002091AF013091B0018091FE019091FF01B5
:100740008217930708F410E0CE0101960E94FE0A7A
:10075000112331F06EE271E08BEA91E00E94AD0B63
:100760002091AF013091B0018091FE019091FF0185
:100770002817390739F56AEF71E08BEA91E00E949A
:100780008C0C882349F00E94F70080E090E00E94E2
:1007900063011092D60116C08091D6018F5F8093BD
:1007A000D6016EE271E08BEA91E00E94AD0B0E94EF
:1007B000ED0068EE73E080E090E00E94590680E072
:1007C0000E9412018091D601833008F16EE271E03F
:1007D0008BEA91E00E94AD0B1092D60161E072E0CD
:1007E000CE0101960E94A30BCE0101960E9420012A
:1007F000CE0101960E94FE0A0E94ED0068EB7BE0AC
:1008000080E090E00E94590680E00E94120164E6B8
:1008100070E080E090E00E94590627960FB6F894A9
:10082000DEBF0FBECDBFDF91CF911F910F91089515
:10083000EF920F936FE271E08CEE91E00E946F0BEC
:100840006FE371E081E092E00E946F0B62E571E07E
:1008500088E092E00E946F0B6EE571E083EF91E01B
:100860000E946F0B6BE671E08AEF91E00E946F0BC4
:1008700083E0E82E04E026E031E049E051E06DE05D
:1008800071E082EB91E00E94AF056EE271E08BEACD
:1008900091E00F91EF900C946F0B0C946C00DC01C5
:1008A00018968D919C9119978617970769F019965C
:1008B0007C936E9318975C96ED91FC915D973097C1
:1008C00019F01A968C91099408954F925F926F9245
:1008D0007F92AF92BF92CF92DF92EF92FF920F93EF
:1008E0001F93CF93DF93EC01A12CA8C00A2D10E039
:1008F000EC81FD81E00FF11F60E080810E94CD0658
:10090000B12C68018EC0EB2CF12C8F81E881F9812C
:10091000EC0DFD1DB89EE00DF11D11249A8580811E
:1009200098133CC00E9447064E845F84688879888B
:1009300064197509860997094A8C5B8C612C712CA6
:10094000641575058605970550F0EA81FB81EE0D6B
:10095000FF1D80810E94A906882309F498C00E9487
:1009600047064E845F84688879886419750986090A
:100970009709488C598C612C712C64157505860576
:10098000970508F493C0EA81FB81EB0DF11D80818E
:100990000E94A906813009F089C07FC00E944706E5
:1009A0004E845F8468887988641975098609970977
:1009B000488C598C612C712C64157505860597053A
:1009C00078F1EA81FB81EE0DFF1D80810E94A9066E
:1009D000811126C0EC81FD81E00FF11F61E0808173
:1009E0000E94CD062F812E9DC0012F9D900D1124B8
:1009F000E881F981EC0DFD1DE80FF91FF0808E856F
:100A00009F85A889B9898A8B9B8BAC8BBD8B0E94F3
:100A100047066E877F87888B998BF11015C005C0BC
:100A2000B3948E81B81608F46ECFEC81FD81E00F8F
:100A3000F11F61E080810E94CD06A3948F81A816EA
:100A400008F454CF80E040C08B85F81239C00E9472
:100A500047060A891B892C893D89601B710B820B13
:100A6000930B0E891F8920E030E00617170728072F
:100A7000390710F525C081E090E09D878C87FA86C4
:100A800061E070E0CE010E944F048A851DC063E0E2
:100A900070E0CE010E944F0462CF62E070E0CE01B0
:100AA0000E944F048A858B871A86BFCF88859985D7
:100AB000039709F0B5CFB9CF8C859D850196DDCF21
:100AC0008A85F812D8CFBECFDF91CF911F910F91B9
:100AD000FF90EF90DF90CF90BF90AF907F906F909E
:100AE0005F904F900895FF920F931F93CF93DF93E2
:100AF000EC01F12C13C00F2D10E0EA81FB81E00F17
:100B0000F11F60E080810E947B06EA81FB81E00F9B
:100B1000F11F61E080810E94CD06F3948E81F8166A
:100B200050F3F12C13C00F2D10E0EC81FD81E00F8C
:100B3000F11F61E080810E947B06EC81FD81E00F66
:100B4000F11F61E080810E94CD06F3948F81F81639
:100B500050F3DF91CF911F910F91FF900895EF9285
:100B60000F93FC0153834283358324830683E782FA
:100B70007183608316861786108A118A128A138AF7
:100B8000148A158A8CE291E0978B868B82E390E041
:100B9000918F808F88EE93E0938F828F158E148EC5
:100BA000128613861186108615861486CF010F9142
:100BB000EF900C94730580E480937C0087E8809329
:100BC0007A000895CF93DF931F92CDB7DEB790914F
:100BD0001D01913031F489830E94DB0510921D01C3
:100BE0008981877020911E0140E4249F9001112487
:100BF000822B80937C0080917A00806480937A00BD
:100C000080917A0086FDFCCF2091780030917900A8
:100C1000932F80E0FC01E22B9F01C9010F90DF912F
:100C2000CF9108958091100290911102A09112022B
:100C3000B091130230910F02232F2D5F2D3720F436
:100C40000196A11DB11D05C0232F2A570296A11D93
:100C5000B11D20930F028093100290931102A09374
:100C60001202B09313028091140290911502A09188
:100C70001602B09117020196A11DB11D80931402B6
:100C800090931502A0931602B093170208950F9344
:100C90001F938FB7F89400911002109111022091C8
:100CA0001202309113028FBFB801C9011F910F9139
:100CB00008958F929F92AF92BF92CF92DF92EF9260
:100CC000FF926B017C010E9447064B015C010E9470
:100CD0004706681979098A099B096C157D058E05F7
:100CE0009F05A8F3FF90EF90DF90CF90BF90AF905B
:100CF0009F908F900895982F977021E030E0092EF3
:100D000001C0220F0A94EAF786958695869581F0B0
:100D1000813089F0823091F08330D1F412C080812B
:100D20002095822302C08081822B80839FBF0895FB
:100D3000EAE2F0E008C0E7E2F0E005C0E4E2F0E05B
:100D400002C0E1E2F0E09FB7F894662341F3EBCFF5
:100D50000895982F977021E030E001C0220F9A95F6
:100D6000EAF786958695869539F0813041F0823094
:100D700049F0833051F00895E9E2F0E008C0E6E27E
:100D8000F0E005C0E3E2F0E002C0E0E2F0E09081D4
:100D9000922381E009F480E00895982F977021E074
:100DA00030E0092E01C0220F0A94EAF78695869555
:100DB000869581F0813089F0823091F08330D1F4D2
:100DC00012C080812095822302C08081822B808383
:100DD0009FBF0895EBE2F0E008C0E8E2F0E005C054
:100DE000E5E2F0E002C0E2E2F0E09FB7F8946623AB
:100DF00041F3EBCF08950E94BE0C0E949D000E941B
:100E0000A902FDCFFC0120893189C9010895DC01C7
:100E100050962D913C915197232B49F05496ED918A
:100E2000FC915597E80FF91F268930E002C02FEF9B
:100E30003FEFC9010895FC01118A108A158A148AAE
:100E4000138A128A0895FC0124813581C90108950D
:100E5000FC0124813581C9010895FC0180899189B3
:100E6000892BD1F03FB7F894808991890197918BB4
:100E7000808B84899589DF01A80FB91F56962C9124
:100E80000196803291051CF4958B848B02C0158AE3
:100E9000148A3FBF30E002C02FEF3FEFC901089531
:100EA000EF92FF921F93CF93DF931F92CDB7DEB7E0
:100EB0007C01D701DA968D919C91DB974097C8F71A
:100EC0001FB7F894D696ED91FC91D7970190F081D9
:100ED000E02DC701C6966983099569814097C8F4DA
:100EE000F70182AD93AD019693AF82AF84AD95AD1E
:100EF000E80FF91FE05CFF4F60830196D701DD9694
:100F00009C938E93DC97409724F0DD961C921E9262
:100F1000DC97F701EA5AFF4F0190F081E02D8081C4
:100F2000806280831FBF81E090E00F90DF91CF91BE
:100F30001F91FF90EF900895665F7F4F680F791FB4
:100F4000CB010895665F7F4F680F791FCB0108952D
:100F5000665F7F4F680F791FCB010895665F7F4FF3
:100F6000680F791FCB0108951F920F920FB60F9251
:100F700011242F938F939F93AF93BF93EF93FF937E
:100F80008091AE029091AF02892B21F1E091CE02C7
:100F9000F091CF028091AE029091AF0201979093B1
:100FA000AF028093AE028091B2029091B302DC0155
:100FB000A655BD4F1A962C910196803191052CF4BF
:100FC0009093B3028093B20204C01092B3021092C5
:100FD000B20220838091AE029091AF02892B31F44E
:100FE000E091CA02F091CB0288E98083FF91EF91F2
:100FF000BF91AF919F918F912F910F900FBE0F9046
:101000001F9018951F920F920FB60F9211242F93D5
:101010008F939F93AF93BF93EF93FF93809152026F
:1010200090915302892B21F1E0917202F0917302A9
:1010300080915202909153020197909353028093B2
:1010400052028091560290915702DC01A25BBD4F83
:101050001A962C910196803191052CF490935702A9
:101060008093560204C010925702109256022083B9
:101070008091520290915302892B31F4E0916E02DB
:10108000F0916F0288E98083FF91EF91BF91AF915A
:101090009F918F912F910F900FBE0F901F901895D9
:1010A000FC01262F1382128248EE53E060E070E0CC
:1010B000448355836683778384E791E091838083BB
:1010C00084E891E09587848780E290E0978786871F
:1010D000118A108A158A148A138A128A8EE891E07E
:1010E00097AB86AB80E190E091AF80AF13AE12AECC
:1010F00017AE16AE15AE14AE222321F0213009F042
:1011000052C028C0DF01A05BBF4F85EC90E08D93FB
:101110009C93DF01AE5ABF4F84EC90E08D939C937B
:10112000DF01AC5ABF4F80EC90E08D939C93DF01C0
:10113000AA5ABF4F81EC90E08D939C93DF01A85A8F
:10114000BF4F82EC90E08D939C93E65AFF4F86EC64
:1011500090E027C0DF01A05BBF4F8DEC90E08D9346
:101160009C93DF01AE5ABF4F8CEC90E08D939C9323
:10117000DF01AC5ABF4F88EC90E08D939C93DF0168
:10118000AA5ABF4F89EC90E08D939C93DF01A85A37
:10119000BF4F8AEC90E08D939C93E65AFF4F8EEC04
:1011A00090E09183808308953F924F925F926F9277
:1011B0007F928F929F92AF92BF92CF92DF92EF92E7
:1011C000FF920F931F93CF93DF93EC014A015B01D2
:1011D000122F3E2C60E072E18AE790E0A5019401B5
:1011E0000E940C1169017A0184E0C80ED11CE11C37
:1011F000F11C83E0F694E794D794C7948A95D1F7CD
:1012000060E074E284EF90E0A50194010E940C116B
:1012100029013A0194E0490E511C611C711C93E0B4
:1012200076946794579447949A95D1F7A3019201C5
:101230004427552760E874E88EE190E00E942E1163
:101240005901A818B908B7FE03C0B194A194B10818
:10125000A70196014427552760E472E48FE090E0EF
:101260000E942E112819390937FF03C031952195A5
:101270003109FE01EC5AFF4F0190F081E02DA216DA
:10128000B3063CF482E08083620181E0C81AD10891
:1012900004C0108291E0C91AD1081630C1F018F4C8
:1012A000153099F405C0173029F0193071F404C0D5
:1012B00080E00EC084E00CC0FE01EA5AFF4F0190AE
:1012C000F081E02D80818460808386E001C082E02F
:1012D000023009F4886091E0391621F092E0391269
:1012E00004C002C0806301C08062FE01E85AFF4F63
:1012F0000190F081E02D8083FE01E05BFF4F0190C3
:10130000F081E02DD082FE01EE5AFF4F0190F08176
:10131000E02DC082CA5ADF4FE881F98188E98083D5
:10132000DF91CF911F910F91FF90EF90DF90CF90C1
:10133000BF90AF909F908F907F906F905F904F90F5
:101340003F9008950F931F93CF93DF931F92CDB7D4
:10135000DEB78C01DC01ED91FC910190F081E02D74
:101360006983099569818097D0F4F801848195811A
:1013700001969583848386819781E80FF91F6287A0
:1013800001968032910534F4D80117969C938E9380
:10139000169703C0F8011782168281E001C080E031
:1013A0000F90DF91CF911F910F9108951F920F928F
:1013B0000FB60F9211242F933F934F935F936F9328
:1013C0007F938F939F93AF93BF93EF93FF93E0919E
:1013D0007202F0917302608184E292E00E94A2099D
:1013E000FF91EF91BF91AF919F918F917F916F91FD
:1013F0005F914F913F912F910F900FBE0F901F90D3
:1014000018951F920F920FB60F9211242F933F93AE
:101410004F935F936F937F938F939F93AF93BF93FC
:10142000EF93FF93E091CE02F091CF02608180E8CC
:1014300092E00E94A209FF91EF91BF91AF919F911D
:101440008F917F916F915F914F913F912F910F906D
:101450000FBE0F901F90189560E084E792E00E9405
:10146000500861E088E192E00C9450081F93CF93FC
:10147000DF93182FEB01209721F460E00E94CD0646
:1014800040E0143079F1153029F11630E9F11730C8
:1014900099F1133169F0143109F044C011C060E0D2
:1014A00001C061E0812FDF91CF911F910C94CD0697
:1014B00060E084E193E00E94930FAE0160E007C01A
:1014C00061E084E193E00E94930FAE0161E084E16A
:1014D00093E023C060E082EF92E00E94930FAE01A0
:1014E00060E007C061E082EF92E00E94930FAE01DE
:1014F00061E082EF92E011C060E080ED92E00E9436
:10150000930FAE0160E007C061E080ED92E00E94C1
:10151000930FAE0161E080ED92E0DF91CF911F91DA
:101520000C94C00FC038D10508F4B9CFBACFCF9210
:10153000DF92EF92FF920F931F93CF93DF936C0193
:10154000EB017A01E60EF71E00E010E00BC0699196
:10155000D601ED91FC910190F081E02DC601099535
:10156000080F191FCE15DF0591F7C801DF91CF9144
:101570001F910F91FF90EF90DF90CF900895DC01C5
:10158000ED91FC910190F081E02D0994DC01ED9149
:10159000FC91DB0114964D915C9115976D917C91B6
:1015A0000280F381E02D09940F931F93CF93DF9373
:1015B000EC016DE00E94BF0A8C016AE0CE010E943E
:1015C000BF0A9C01200F311FC901DF91CF911F91EC
:1015D0000F9108950F931F93CF93DF93EC010E9417
:1015E000C60A8C01CE010E94D40A9C01200F311F33
:1015F000C901DF91CF911F910F910895FC01808166
:1016000091810C94EB11CF93DF93EC018881998148
:10161000009711F00E94EB11198218821D821C8222
:101620001B821A82DF91CF9108950F931F93CF935E
:10163000DF93EC018B016F5F7F4F888199810E945E
:101640008812009731F0998388831B830A8381E095
:1016500001C080E0DF91CF911F910F910895CF934A
:10166000DF93EC0188819981892B31F08A819B81FC
:101670008617970708F00CC0CE010E94150B88232F
:1016800049F08C819D81892B19F4E881F9811082C0
:1016900081E001C080E0DF91CF910895EF92FF9249
:1016A0000F931F93CF93DF93EC017B018A01BA0163
:1016B0000E942F0B811104C0CE010E94030B07C0B2
:1016C0001D830C83B701888199810E946613CE0126
:1016D000DF91CF911F910F91FF90EF900895DC0162
:1016E00011961C921E9213961C921E92129715969A
:1016F0001C921E92149716961C926115710559F052
:10170000DB010D900020E9F7AD0141505109461B66
:10171000570B0C944E0B0895CF93DF93EC01FB0114
:101720008617970761F0608171816115710529F055
:10173000448155810E944E0B02C00E94030BCE01D2
:10174000DF91CF910895FC011182108213821282E1
:101750001582148216820C948C0BCF93DF93D82FB2
:10176000C92F6115710561F0DB010D900020E9F7CB
:10177000AD0141505109461B570B0E944E0B02C050
:101780000E94030B8D2F9C2FDF91CF910895CF9353
:10179000DF9300D0CDB7DEB7FC0111821082138237
:1017A000128215821482168269831A82BE016F5FCB
:1017B0007F4F0E94AD0B0F900F90DF91CF91089556
:1017C000EF92FF920F931F93CF93DF93EC017B0176
:1017D0000C811D816115710511F480E016C0411561
:1017E000510591F0040F151FB8010E942F0B88239B
:1017F000A1F3288139818C819D81B701820F931FCC
:101800000E9466131D830C8381E0DF91CF911F91AD
:101810000F91FF90EF900895FB0144815581608105
:1018200071810C94E00BEF92FF920F931F93CF9373
:10183000DF93CDB7DEB728970FB6F894DEBF0FBEA3
:10184000CDBF7C01CB014AE050E08E010F5F1F4FFE
:10185000B8010E946D13F80101900020E9F7AF0173
:1018600041505109401B510BB801C7010E94E00BC8
:1018700028960FB6F894DEBF0FBECDBFDF91CF9193
:101880001F910F91FF90EF900895CF93DF93D82F82
:10189000C92FFB0144815581608171810E94E00B59
:1018A000811104C08D2F9C2F0E94030B8D2F9C2F24
:1018B000DF91CF910895CF93DF93DC01ED91FC91FF
:1018C000EB01A881B981309711F01097C9F41097F6
:1018D00059F0EB012C813D81232B31F02C9130E02C
:1018E00031952195310914C0309781F0DC011496AF
:1018F0008D919C911597892B49F0208130E008C08B
:10190000BD01CF01DF91CF910C945D1320E030E059
:10191000C901DF91CF910895FC0144815581FB01FC
:10192000248135814217530729F40E945B0C21E082
:10193000892B09F020E0822F0895FC018481958194
:10194000DB0114964D915C91159784179507A0F0D3
:10195000208131812115310579F06D917C916115DE
:10196000710551F0841B950B820F931F0E945D132C
:101970009C0181E0232B09F080E0089563E084E17D
:1019800093E00E947D0F21E042E156E060E084E1B7
:1019900093E00E94530F64E084E193E00E94800E84
:1019A00061E082EF92E00E947D0F64E082EF92E0BE
:1019B0000E94800E61E080ED92E00E947D0F64E065
:1019C00080ED92E00E94800E789408951F920F920D
:1019D0000FB60F9211242F933F934F935F936F9302
:1019E0007F938F939F93AF93BF93EF93FF93E09178
:1019F0002E03F0912F03309709F00995FF91EF9195
:101A0000BF91AF919F918F917F916F915F914F9116
:101A10003F912F910F900FBE0F901F9018951F921E
:101A20000F920FB60F9211242F933F934F935F9312
:101A30006F937F938F939F93AF93BF93EF93FF9396
:101A4000E0913003F0913103309709F00995FF914F
:101A5000EF91BF91AF919F918F917F916F915F9126
:101A60004F913F912F910F900FBE0F901F9018959F
:101A70001F920F920FB60F9211242F933F934F9303
:101A80005F936F937F938F939F93AF93BF93EF93E6
:101A9000FF93E0912C03F0912D03309709F0099505
:101AA000FF91EF91BF91AF919F918F917F916F9136
:101AB0005F914F913F912F910F900FBE0F901F900C
:101AC00018951F920F920FB60F9211242F933F93E8
:101AD0004F935F936F937F938F939F93AF93BF9336
:101AE000EF93FF93E091EA02F091EB02309709F057
:101AF0000995FF91EF91BF91AF919F918F917F9148
:101B00006F915F914F913F912F910F900FBE0F906A
:101B10001F9018951F920F920FB60F9211242F93BA
:101B20003F934F935F936F937F938F939F93AF9365
:101B3000BF93EF93FF93E091EC02F091ED023097A9
:101B400009F00995FF91EF91BF91AF919F918F910E
:101B50007F916F915F914F913F912F910F900FBEA9
:101B60000F901F9018951F920F920FB60F9211248D
:101B70002F933F934F935F936F937F938F939F9395
:101B8000AF93BF93EF93FF93E091E802F091E902E6
:101B9000309709F00995FF91EF91BF91AF919F9117
:101BA0008F917F916F915F914F913F912F910F9006
:101BB0000FBE0F901F9018951F920F920FB60F92A5
:101BC00011242F933F934F935F936F937F938F9342
:101BD0009F93AF93BF93EF93FF93E0910C03F0912A
:101BE0000D03309709F00995FF91EF91BF91AF91E7
:101BF0009F918F917F916F915F914F913F912F9125
:101C00000F900FBE0F901F9018951F920F920FB656
:101C10000F9211242F933F934F935F936F937F9372
:101C20008F939F93AF93BF93EF93FF93E0910E0336
:101C3000F0910F03309709F00995FF91EF91BF9153
:101C4000AF919F918F917F916F915F914F913F9154
:101C50002F910F900FBE0F901F9018951F920F920B
:101C60000FB60F9211242F933F934F935F936F936F
:101C70007F938F939F93AF93BF93EF93FF93E091E5
:101C80000A03F0910B03309709F00995FF91EF914A
:101C9000BF91AF919F918F917F916F915F914F9184
:101CA0003F912F910F900FBE0F901F9018951F928C
:101CB0000F920FB60F9211242F933F934F935F9380
:101CC0006F937F938F939F93AF93BF93EF93FF9304
:101CD000E0911203F0911303309709F00995FF91F9
:101CE000EF91BF91AF919F918F917F916F915F9194
:101CF0004F913F912F910F900FBE0F901F9018950D
:101D0000DC012C916150223039F4673068F4E62F01
:101D1000F0E0EC56FE4F06C0693030F4E62FF0E0FC
:101D2000E556FE4F208101C020E0DC011A96ED91BE
:101D3000FC911B978081887F822B80830895CF93AD
:101D4000DF93EC016883613011F120F0623009F01B
:101D50006CC048C01B821A8286E490E09D838C830D
:101D60008EE690E09F838E8384E490E09987888755
:101D700085E490E09B878A871D861C8687E490E037
:101D80009F878E87198A188A88E490E022C08FE6A0
:101D900090E09F838E8385E890E09B838A8384E82C
:101DA00090E09D838C8380E890E09987888781E824
:101DB00090E09B878A8789E890E09D878C8788E8F8
:101DC00090E09F878E878BE890E0998B888B8AE8DC
:101DD00090E09B8B8A8B1D8A1C8A1F8A1E8A82E058
:101DE000898323C01B821A8282EB90E09D838C83BF
:101DF00080E790E09F838E8380EB90E099878887CF
:101E000081EB90E09B878A871D861C8683EB90E0A0
:101E10009F878E87198A188A84EB90E09B8B8A8B28
:101E20001D8A1C8A1F8A1E8A698360E0CE010E9477
:101E3000800EEA81FB81309709F01082EC81FD81F0
:101E40001082198E188E1B8E1A8E1D8E1C8E1F8E60
:101E50001E8E19A218A2DF91CF91089551E0411171
:101E600001C050E06530F0F4E62FF0E0EC55FE4F95
:101E7000408147FD17C0DC011696ED91FC91179744
:101E8000808121E030E0042E01C0220F0A94EAF79D
:101E900020952823852F042E01C0880F0A94EAF785
:101EA000282B20830895623099F028F4662341F0AE
:101EB0006130C9F409C0633079F06430A1F410C016
:101EC000FC01518F408F0FC0FC01538F428F0BC01C
:101ED000FC01558F448F07C0FC01578F468F03C00C
:101EE000FC0151A340A3452B11F440E003C0222381
:101EF00019F041E00C942E0F0895DC011896ED9135
:101F0000FC9119973081262F23703C7F232B20834F
:101F10001A96ED91FC911B9780816C70660F877EFD
:101F2000682B60830895FC018181681740F59081DA
:101F3000992311F0923011F4813049F0662329F091
:101F4000613029F0623031F404C026E003C024E09F
:101F500001C022E00084F185E02D308183E090E033
:101F6000022E01C0880F0A94EAF7809583234370FC
:101F7000022E01C0440F0A94EAF7842B808308954F
:101F8000FC0181816817F8F4611109C0A485B58549
:101F9000109709F05C930684F785E02D13C061303B
:101FA00049F4A089B189109709F05C930288F389FC
:101FB000E02D08C0623039F4A489B5895C930688A5
:101FC000F789E02D4083089560E084E193E00E946A
:101FD0009F0E61E082EF92E00E949F0E62E080ED32
:101FE00092E00C949F0E40D008F481E00895E894AC
:101FF00009C097FB3EF490958095709561957F4F51
:102000008F4F9F4F9923A9F0F92F96E9BB279395FE
:10201000F695879577956795B795F111F8CFFAF40E
:10202000BB0F11F460FF1BC06F5F7F4F8F4F9F4F3F
:1020300016C0882311F096E911C0772321F09EE89D
:10204000872F762F05C0662371F096E8862F70E003
:1020500060E02AF09A95660F771F881FDAF7880FDD
:102060009695879597F90895990F0008550FAA0B33
:10207000E0E8FEEF16161706E807F907C0F012169B
:102080001306E407F50798F0621B730B840B950B9E
:1020900039F40A2661F0232B242B252B21F40895F3
:1020A0000A2609F4A140A6958FEF811D811D089590
:1020B00097F99F6780E870E060E008959FEF80ECFB
:1020C000089500240A94161617061806090608959E
:1020D00000240A9412161306140605060895092E04
:1020E0000394000C11F4882352F0BB0F40F4BF2B73
:1020F00011F460FF04C06F5F7F4F8F4F9F4F0895B3
:1021000057FD9058440F551F59F05F3F71F04795A8
:10211000880F97FB991F61F09F3F79F0879508958D
:10212000121613061406551FF2CF4695F1DF08C0AC
:10213000161617061806991FF1CF869571056105C9
:1021400008940895E894BB2766277727CB0197F971
:1021500008950BD0C4CFB5DF28F0BADF18F095236F
:1021600009F0A6CFABCF1124EECFCADFA0F3959F25
:10217000D1F3950F50E0551F629FF001729FBB276E
:10218000F00DB11D639FAA27F00DB11DAA1F649F1A
:102190006627B00DA11D661F829F2227B00DA11DCD
:1021A000621F739FB00DA11D621F839FA00D611D53
:1021B000221F749F3327A00D611D231F849F600D74
:1021C000211D822F762F6A2F11249F5750408AF0AD
:1021D000E1F088234AF0EE0FFF1FBB1F661F771F39
:1021E000881F91505040A9F79E3F510570F060CF75
:1021F000AACF5F3FECF3983EDCF386957795679521
:10220000B795F795E7959F5FC1F7FE2B880F911D56
:102210009695879597F90895A1E21A2EAA1BBB1BE4
:10222000FD010DC0AA1FBB1FEE1FFF1FA217B307A2
:10223000E407F50720F0A21BB30BE40BF50B661FB8
:10224000771F881F991F1A9469F76095709580957C
:1022500090959B01AC01BD01CF010895052E97FB20
:1022600016F4009407D057FD0DD00E940C1107FC06
:1022700009D07EF490958095709561957F4F8F4F32
:102280009F4F089550954095309521953F4F4F4F62
:102290005F4F0895EE0FFF1F0590F491E02D099414
:1022A0000F931F93CF93DF938230910510F482E058
:1022B00090E0E0913803F091390320E030E0C0E095
:1022C000D0E023C04081518148175907A8F0481732
:1022D000590761F482819381209719F09B838A8347
:1022E0002EC0909339038093380329C021153105FE
:1022F00029F04217530710F0A90102C0BE01DF0107
:1023000002811381EF019A01F8013097D9F6211566
:10231000310509F1281B390B2430310590F4129650
:102320008D919C9113976115710521F0FB019383A9
:10233000828304C09093390380933803FD01329661
:1023400044C0FD01E20FF31F8193919322503109A4
:102350002D933C933AC02091360330913703232BC1
:1023600041F420910201309103013093370320930F
:10237000360320910001309101012115310541F40E
:102380002DB73EB74091040150910501241B350B38
:10239000E0913603F0913703E217F307A0F42E1B08
:1023A0003F0B2817390778F0AC014E5F5F4F2417B9
:1023B000350748F04E0F5F1F5093370340933603A5
:1023C0008193919302C0E0E0F0E0CF01DF91CF91E3
:1023D0001F910F910895EF92FF920F931F93CF9348
:1023E000DF93009709F48FC0DC01129713961C92BB
:1023F0001E921297E0903803F0903903E114F10433
:1024000089F42D913C911197280F391F8091360343
:10241000909137038217930789F5B0933703A09300
:10242000360371C0E70120E030E001C0EA01CA17BD
:10243000DB0738F44A815B819E0141155105B1F7F4
:1024400022C0BC0162507109FB01D383C2830081A9
:102450001181AC01400F511F4C175D0761F4488199
:102460005981400F511F4E5F5F4F518340834A8116
:102470005B81538342832115310529F4B0933903DD
:10248000A093380340C0F901B383A283E9016991A5
:102490007991C60FD71FAC17BD0779F4DC015E91A7
:1024A0004E91460F571F4E5F5F4F518340831296E8
:1024B0008D919C91139793838283A0E0B0E002C03A
:1024C000D7017C01F701828193810097C9F7C70189
:1024D000029620813181820F931F20913603309123
:1024E00037032817390779F4109729F41092390324
:1024F0001092380304C013961C921E921297F09209
:102500003703E0923603CDB7DEB7E6E00C94DA137A
:10251000A0E0B0E0EEE8F2E10C94B813EC01009713
:1025200029F4CB010E945011EC01B8C0DC01A60FC8
:10253000B71FFC013297AE17BF0718F4C0E0D0E018
:10254000ADC00081118106171707B0F005301105E5
:1025500008F4A4C0C80104978617970708F49EC022
:1025600002501109061B170B0D931D937183608395
:10257000CD010E94EB1192C07B01E01AF10A5C01CF
:10258000A00EB11EE0913803F0913903812C912CFB
:1025900080E090E04CC0EA15FB05F1F540815181E7
:1025A0006A0122E0C20ED11CCE14DF04A8F19A0108
:1025B0002E193F097901690132E0C30ED11C2EEFBB
:1025C000A22EBB24BA94AC0EBD1E25E0C216D104C7
:1025D00078F04281538113965C934E931297119633
:1025E000FC92EE92F501718360833A2F2B2F09C084
:1025F0000E5F1F4F040F151FD5010D931C933281E1
:102600002381009721F0FC013283238347C030935C
:1026100038032093390342C080819181881699063E
:1026200008F44C0152814381CF01E52FF42F3097FC
:1026300009F0B1CF80913603909137038A159B053D
:10264000F1F486169706D8F480910001909101016B
:10265000009741F48DB79EB7209104013091050198
:10266000821B930BA817B90708F068CFB093370304
:10267000A0933603FE013297718360830FC0CB01B4
:102680000E9450117C01009709F458CFA801BE01A7
:102690000E945413CE010E94EB11E701CE01CDB789
:1026A000DEB7ECE00C94D413FB01DC0102C0019016
:1026B0000D9241505040D8F70895FB01DC018D91F7
:1026C000019080190110D9F3990B0895FB01DC01E9
:1026D00001900D920020E1F70895FB019F01E8941D
:1026E0004230C4F04532B4F44A3029F497FB1EF46A
:1026F000909581959F4F642F77270E949E13805D50
:102700008A330CF0895D8193CB010097A1F716F411
:102710005DE251931082C9010C948E13DC01FC011F
:10272000672F71917723E1F7329704C07C916D9305
:1027300070836291AE17BF07C8F30895AA1BBB1B35
:1027400051E107C0AA1FBB1FA617B70710F0A61BB1
:10275000B70B881F991F5A95A9F780959095BC01D2
:10276000CD0108952F923F924F925F926F927F9288
:102770008F929F92AF92BF92CF92DF92EF92FF9291
:102780000F931F93CF93DF93CDB7DEB7CA1BDB0B3D
:102790000FB6F894DEBF0FBECDBF09942A883988E2
:1027A00048885F846E847D848C849B84AA84B984E9
:1027B000C884DF80EE80FD800C811B81AA81B981F5
:1027C000CE0FD11D0FB6F894DEBF0FBECDBFED0109
:1027D000089510E0C2E8D0E004C0FE010E944C1150
:0C27E0002296C438D107C9F7F894FFCF47
:1027EC0000003A03200005040309080706313233C0
:1027FC003435363738392A30230E000F00010149A1
:10280C00443A002C616C6572743A002A0023006D06
:10281C006F74696F6E2064657465637465640073AE
:10282C007573706963696F757320617474656D700D
:10283C0074006C6F772062617474657279006C6FD0
:10284C006E67206F70656E696E67003132333400CD
:10285C00000000005007970A020707072D071B0707
:10286C00000000002807A807AE070000000023079F
:10287C009C07A207010203040506070102000300DE
:0A288C000405060700010203050021
:00000001FF
