:100000000C9442000C946A000C946A000C946A00F0
:100010000C946A000C946A000C946A000C946A00B8
:100020000C946A000C94820D0C94AB0D0C94D40DBE
:100030000C94780E0C94FD0D0C94260E0C944F0E1F
:100040000C94070D0C94300D0C94590D0C946A000F
:100050000C94050A0C94B8070C946A000C946A007E
:100060000C946A000C946A000C946A000C946A0068
:100070000C94DA090C9406080C946A001C04300AEB
:100080000510510411241FBECFEFD0E1DEBFCDBF5C
:1000900011E0A0E0B1E0EEE2F8E202C005900D92BE
:1000A000A23BB107D9F713E0A2EBB1E001C01D926A
:1000B000A234B107E1F710E0C2E8D0E004C0229713
:1000C000FE010E946D11CC37D107C9F70E94FF06CF
:1000D0000C940A140C94000083EB91E00E94020B34
:1000E00082E092E00E94020B8BEF91E00E94020BF3
:1000F00080E192E00E94020B89E092E00E94020BF4
:1001000084EF91E00C94020B0F931F93CF93DF9336
:10011000EB018A0142E0BC018DE00E943A0A42E014
:10012000BE018CE00E943A0A42E0B8018AE0DF9109
:10013000CF911F910F910C943A0AEF920F93E12CFB
:1001400001E028E040E855E260E070E08CE792E0F2
:100150000E94D80860E371E083EB91E00E94B10B4C
:100160001092EC0181E08093EE018093ED011092FA
:10017000DE011092B2011092EF0128E040E855E252
:1001800060E070E08CE792E00E94D8081092E701EE
:10019000209A08983D9A3C9A3A9A3B984FEF50E043
:1001A00060E070E080E090E00E94840061E0809177
:1001B0001B010E947F0660E0809119010E947F066A
:1001C000219A28E040E855E260E070E08CE792E098
:1001D0000E94D8080F91EF90089540E050E060E051
:1001E00070E08FEF90E00E948400299A089581E0EA
:1001F0008093EC0140E050E06FEF70E080E090E031
:100200000C9484001092EC014FEF50E060E070E03D
:1002100080E090E00C948400882311F0299A0895DE
:100220002998089581110C94ED004FEF50E060E0A3
:1002300070E080E090E00E94840080E00C940C016B
:100240000F931F93CF93DF93CDB7DEB72E970FB6E3
:10025000F894DEBF0FBECDBF8C016FE171E0CE011F
:1002600008960E94730B61E070E0CE0108960E9430
:10027000170C66E271E0CE0101960E94730BB80183
:10028000CE0101960E94490C61E371E00E945F0C6F
:10029000BC01CE0108960E94100CCE0101960E946E
:1002A000020BBE01685F7F4F8CE792E00E94EE0A6E
:1002B000CE0108960E94020B2E960FB6F894DEBF70
:1002C0000FBECDBFDF91CF911F910F9108958F92F7
:1002D0009F92AF92BF92FF920F931F93CF93DF93A2
:1002E000CDB7DEB727970FB6F894DEBF0FBECDBFF0
:1002F0008C010E944B066093DF017093E0018093B4
:10030000E1019093E2010E944B066093E801709333
:10031000E9018093EA019093EB01FF24F3947AC002
:100320000E944B068090DF019090E001A090E101D7
:10033000B090E201681979098A099B096033754711
:1003400081059105D0F00E94ED008091ED018111B1
:1003500066C00E944B068090E8019090E901A09051
:10036000EA01B090EB01681979098A099B0968389C
:1003700073418105910508F052C00130110561F407
:10038000339948C0F092ED010E94020180E00E9482
:1003900012011092E7013AC001151105D9F58AEB57
:1003A00091E00E946904882381F0682FCE010196B4
:1003B0000E94CB0BBE016F5F7F4F83EB91E00E94E9
:1003C000100CCE0101960E94020B64E371E0CE0195
:1003D00001960E94730BBE016F5F7F4F83EB91E02C
:1003E0000E94BE0CB82ECE0101960E94020BBB20CB
:1003F00089F080E00E9412010E940201F092ED015A
:1004000060E371E083EB91E00E94B10B1092D9019F
:100410001092D8018091EC01811182CF1BC0109203
:10042000ED010E944B066093E8017093E90180930F
:10043000EA019093EB016BEF71E0CE0101960E940F
:10044000A70BCE0101960E942001CE0101960E94C9
:10045000020B93CF27960FB6F894DEBF0FBECDBF29
:10046000DF91CF911F910F91FF90BF90AF909F9020
:100470008F9008950F931F93CF93DF93CDB7DEB77F
:1004800027970FB6F894DEBF0FBECDBF2AE939E932
:1004900049E95FE36091F0017091F1018091F2010F
:1004A0009091F3010E941410181624F081E08093BB
:1004B000EF0105C01092EF0181E08093EE01809181
:1004C000EF018823C9F0289A0E944B060091E301AE
:1004D0001091E4012091E5013091E601601B710B60
:1004E000820B930B603375478105910538F4809139
:1004F000EE01811103C026C0289824C01092EE019D
:100500000E944B066093E3017093E4018093E50140
:100510009093E60160E172E0CE0101960E94A70B84
:10052000CE0101960E942001CE0101960E94020B8D
:10053000299A60ED77E080E090E00E945D0680E01F
:100540000E940C0127960FB6F894DEBF0FBECDBFF8
:10055000DF91CF911F910F9108950F931F93CF9328
:10056000DF93CDB7DEB727970FB6F894DEBF0FBE87
:10057000CDBF88E10E94E605BC01882777FD809504
:10058000982F0E941A102DEC3CEC4CEA50E40E948B
:10059000CA1020E030E040E85AE30E94CA1060939D
:1005A000F0017093F1018093F2019093F3010E94A6
:1005B0003A02809119010E94AD06082F10E01093B5
:1005C000DB010093DA0101301105F1F461E0809163
:1005D0001B010E94D1068091DC019091DD01892BE5
:1005E00011F564EF71E0CE0101960E94A70BCE01D8
:1005F00001960E942001CE0101960E94020B1093E9
:10060000DD010093DC010FC060E080911B010E94BE
:10061000D1068091DC019091DD01019721F41092C7
:10062000DD011092DC018091E701811118C0339B3C
:1006300047C00E944B066093DF017093E0018093F6
:10064000E1019093E20181E08093E7010E94F700CD
:1006500081E090E00E9467011092DE0131C0339B7F
:1006600024C00E944B060091DF011091E00120910F
:10067000E1013091E201601B710B820B930B683B2F
:100680007B4081059105E0F00E94ED006BEF71E089
:10069000CE0101960E94A70BCE0101960E94200177
:1006A000CE0101960E94020B0BC00E94020180E065
:1006B0000E9412011092E7011092D9011092D80104
:1006C0008091B201811107C08AEB91E00E94690418
:1006D000882311F101C0FFCF682FCE0101960E943F
:1006E000CB0BBE016F5F7F4F83EB91E00E94100C3C
:1006F000CE0101960E94020B40E050E06FEF70E0E7
:1007000080E090E00E9484004FEF50E060E070E0F5
:1007100080E090E00E94840066E371E0CE010196E3
:100720000E94730BBE016F5F7F4F83EB91E00E94CD
:10073000BE0C882361F011E02091B7013091B8011F
:1007400080910602909107028217930708F410E047
:10075000CE0101960E94020B112331F060E371E09B
:1007600083EB91E00E94B10B2091B7013091B80169
:1007700080910602909107022817390739F562E047
:1007800072E083EB91E00E94AD0C882349F00E9457
:10079000F70080E090E00E9467011092DE0116C031
:1007A0008091DE018F5F8093DE0160E371E083EB77
:1007B00091E00E94B10B0E94ED0068EE73E080E0D2
:1007C00090E00E945D0680E00E9412018091DE01AF
:1007D000833008F160E371E083EB91E00E94B10B9C
:1007E0001092DE0169E072E0CE0101960E94A70B33
:1007F000CE0101960E942001CE0101960E94020BBB
:100800000E94ED0068EB7BE080E090E00E945D06D6
:1008100080E00E94120164E670E080E090E00E94B7
:100820005D0627960FB6F894DEBF0FBECDBFDF91F1
:10083000CF911F910F910895EF920F9368E371E0AC
:1008400084EF91E00E94730B68E471E089E092E02C
:100850000E94730B6BE571E080E192E00E94730BE4
:1008600067E671E08BEF91E00E94730B64E771E043
:1008700082E092E00E94730B83E0E82E04E026E021
:1008800031E049E051E06DE071E08AEB91E00E94D7
:10089000B30560E371E083EB91E00F91EF900C946E
:1008A000730B0C946C00DC0118968D919C91199738
:1008B0008617970769F019967C936E9318975C9644
:1008C000ED91FC915D97309719F01A968C910994EF
:1008D00008954F925F926F927F92AF92BF92CF92A4
:1008E000DF92EF92FF920F931F93CF93DF93EC0170
:1008F000A12CA8C00A2D10E0EC81FD81E00FF11FB2
:1009000060E080810E94D106B12C68018EC0EB2C82
:10091000F12C8F81E881F981EC0DFD1DB89EE00D71
:10092000F11D11249A85808198133CC00E944B06CA
:100930004E845F84688879886419750986099709E7
:100940004A8C5B8C612C712C6415750586059705A6
:1009500050F0EA81FB81EE0DFF1D80810E94AD0603
:10096000882309F498C00E944B064E845F846888EF
:1009700079886419750986099709488C598C612C06
:10098000712C641575058605970508F493C0EA81F6
:10099000FB81EB0DF11D80810E94AD06813009F0D5
:1009A00089C07FC00E944B064E845F846888798826
:1009B0006419750986099709488C598C612C712C2A
:1009C000641575058605970578F1EA81FB81EE0DC2
:1009D000FF1D80810E94AD06811126C0EC81FD8142
:1009E000E00FF11F61E080810E94D1062F812E9DD2
:1009F000C0012F9D900D1124E881F981EC0DFD1DA2
:100A0000E80FF91FF0808E859F85A889B9898A8BA8
:100A10009B8BAC8BBD8B0E944B066E877F87888B30
:100A2000998BF11015C005C0B3948E81B81608F4E7
:100A30006ECFEC81FD81E00FF11F61E080810E94AB
:100A4000D106A3948F81A81608F454CF80E040C04B
:100A50008B85F81239C00E944B060A891B892C89A4
:100A60003D89601B710B820B930B0E891F8920E05F
:100A700030E0061717072807390710F525C081E071
:100A800090E09D878C87FA8661E070E0CE010E943D
:100A900053048A851DC063E070E0CE010E945304B8
:100AA00062CF62E070E0CE010E9453048A858B879A
:100AB0001A86BFCF88859985039709F0B5CFB9CF3E
:100AC0008C859D850196DDCF8A85F812D8CFBECF63
:100AD000DF91CF911F910F91FF90EF90DF90CF901A
:100AE000BF90AF907F906F905F904F900895FF926E
:100AF0000F931F93CF93DF93EC01F12C13C00F2DB5
:100B000010E0EA81FB81E00FF11F60E080810E942C
:100B10007F06EA81FB81E00FF11F61E080810E9486
:100B2000D106F3948E81F81650F3F12C13C00F2DDB
:100B300010E0EC81FD81E00FF11F61E080810E94F7
:100B40007F06EC81FD81E00FF11F61E080810E9452
:100B5000D106F3948F81F81650F3DF91CF911F9156
:100B60000F91FF900895EF920F93FC0153834283FE
:100B7000358324830683E782718360831686178614
:100B8000108A118A128A138A148A158A8CE291E0DB
:100B9000978B868B82E390E0918F808F88EE93E035
:100BA000938F828F158E148E12861386118610866F
:100BB00015861486CF010F91EF900C94770580E491
:100BC00080937C0087E880937A000895CF93DF9329
:100BD0001F92CDB7DEB790911D01913031F489831A
:100BE0000E94DF0510921D018981877020911E01EE
:100BF00040E4249F90011124822B80937C008091FB
:100C00007A00806480937A0080917A0086FDFCCF20
:100C10002091780030917900932F80E0FC01E22B45
:100C20009F01C9010F90DF91CF9108958091180223
:100C300090911902A0911A02B0911B0230911702F3
:100C4000232F2D5F2D3720F40196A11DB11D05C066
:100C5000232F2A570296A11DB11D209317028093BE
:100C6000180290931902A0931A02B0931B0280916C
:100C70001C0290911D02A0911E02B0911F020196CC
:100C8000A11DB11D80931C0290931D02A0931E0212
:100C9000B0931F0208950F931F938FB7F89400919C
:100CA00018021091190220911A0230911B028FBF75
:100CB000B801C9011F910F9108958F929F92AF9231
:100CC000BF92CF92DF92EF92FF926B017C010E9464
:100CD0004B064B015C010E944B06681979098A0991
:100CE0009B096C157D058E059F05A8F3FF90EF907D
:100CF000DF90CF90BF90AF909F908F900895982FE6
:100D0000977021E030E0092E01C0220F0A94EAF723
:100D100086958695869581F0813089F0823091F0B4
:100D20008330D1F412C080812095822302C080815B
:100D3000822B80839FBF0895EAE2F0E008C0E7E2DB
:100D4000F0E005C0E4E2F0E002C0E1E2F0E09FB7CD
:100D5000F894662341F3EBCF0895982F977021E024
:100D600030E001C0220F9A95EAF786958695869520
:100D700039F0813041F0823049F0833051F00895EC
:100D8000E9E2F0E008C0E6E2F0E005C0E3E2F0E00E
:100D900002C0E0E2F0E09081922381E009F480E07B
:100DA0000895982F977021E030E0092E01C0220F9E
:100DB0000A94EAF786958695869581F0813089F0C8
:100DC000823091F08330D1F412C08081209582234B
:100DD00002C08081822B80839FBF0895EBE2F0E008
:100DE00008C0E8E2F0E005C0E5E2F0E002C0E2E2BF
:100DF000F0E09FB7F894662341F3EBCF08950E948B
:100E0000DF0C0E949D000E94AD02FDCFFC012089F5
:100E10003189C9010895DC0150962D913C9151977B
:100E2000232B49F05496ED91FC915597E80FF91F4B
:100E3000268930E002C02FEF3FEFC9010895FC0181
:100E4000118A108A158A148A138A128A0895FC015D
:100E500024813581C9010895FC0124813581C901AE
:100E60000895FC0180899189892BD1F03FB7F894CE
:100E7000808991890197918B808B84899589DF0185
:100E8000A80FB91F56962C910196803291051CF43B
:100E9000958B848B02C0158A148A3FBF30E002C054
:100EA0002FEF3FEFC9010895EF92FF921F93CF9369
:100EB000DF931F92CDB7DEB77C01D701DA968D9113
:100EC0009C91DB974097C8F71FB7F894D696ED91A1
:100ED000FC91D7970190F081E02DC701C6966983F8
:100EE000099569814097C8F4F70182AD93AD0196E9
:100EF00093AF82AF84AD95ADE80FF91FE05CFF4F73
:100F000060830196D701DD969C938E93DC97409782
:100F100024F0DD961C921E92DC97F701EA5AFF4FEF
:100F20000190F081E02D8081806280831FBF81E08D
:100F300090E00F90DF91CF911F91FF90EF90089577
:100F4000665F7F4F680F791FCB010895665F7F4F03
:100F5000680F791FCB010895665F7F4F680F791F77
:100F6000CB010895665F7F4F680F791FCB0108950D
:100F70001F920F920FB60F9211242F938F939F936E
:100F8000AF93BF93EF93FF938091B6029091B70216
:100F9000892B21F1E091D602F091D7028091B6021F
:100FA0009091B70201979093B7028093B602809117
:100FB000BA029091BB02DC01AE54BD4F1A962C913F
:100FC0000196803191052CF49093BB028093BA0274
:100FD00004C01092BB021092BA0220838091B60224
:100FE0009091B702892B31F4E091D202F091D302B3
:100FF00088E98083FF91EF91BF91AF919F918F918D
:101000002F910F900FBE0F901F9018951F920F9267
:101010000FB60F9211242F938F939F93AF93BF938B
:10102000EF93FF9380915A0290915B02892B21F1FB
:10103000E0917A02F0917B0280915A0290915B02DA
:10104000019790935B0280935A0280915E02909187
:101050005F02DC01AA5ABD4F1A962C91019680318D
:1010600091052CF490935F0280935E0204C010926D
:101070005F0210925E02208380915A0290915B027F
:10108000892B31F4E0917602F091770288E9808330
:10109000FF91EF91BF91AF919F918F912F910F9001
:1010A0000FBE0F901F901895FC01262F13821282FD
:1010B00048EE53E060E070E04483558366837783B5
:1010C0008DE791E0918380838DE891E09587848717
:1010D00080E290E097878687118A108A158A148AA1
:1010E000138A128A87E991E097AB86AB80E190E0A2
:1010F00091AF80AF13AE12AE17AE16AE15AE14AEF2
:10110000222321F0213009F052C028C0DF01A05B6A
:10111000BF4F85EC90E08D939C93DF01AE5ABF4F9B
:1011200084EC90E08D939C93DF01AC5ABF4F80EC30
:1011300090E08D939C93DF01AA5ABF4F81EC90E021
:101140008D939C93DF01A85ABF4F82EC90E08D9362
:101150009C93E65AFF4F86EC90E027C0DF01A05B2E
:10116000BF4F8DEC90E08D939C93DF01AE5ABF4F43
:101170008CEC90E08D939C93DF01AC5ABF4F88ECD0
:1011800090E08D939C93DF01AA5ABF4F89EC90E0C9
:101190008D939C93DF01A85ABF4F8AEC90E08D930A
:1011A0009C93E65AFF4F8EEC90E0918380830895E4
:1011B0003F924F925F926F927F928F929F92AF92E7
:1011C000BF92CF92DF92EF92FF920F931F93CF9334
:1011D000DF93EC014A015B01122F3E2C60E072E1CB
:1011E0008AE790E0A50194010E942D1169017A011E
:1011F00084E0C80ED11CE11CF11C83E0F694E79456
:10120000D794C7948A95D1F760E074E284EF90E0B8
:10121000A50194010E942D1129013A0194E0490E83
:10122000511C611C711C93E0769467945794479409
:101230009A95D1F7A30192014427552760E874E8F5
:101240008EE190E00E944F115901A818B908B7FE2D
:1012500003C0B194A194B108A70196014427552772
:1012600060E472E48FE090E00E944F112819390980
:1012700037FF03C0319521953109FE01EC5AFF4F2C
:101280000190F081E02DA216B3063CF482E0808349
:10129000620181E0C81AD10804C0108291E0C91A25
:1012A000D1081630C1F018F4153099F405C0173084
:1012B00029F0193071F404C080E00EC084E00CC045
:1012C000FE01EA5AFF4F0190F081E02D8081846099
:1012D000808386E001C082E0023009F4886091E0FA
:1012E000391621F092E0391204C002C0806301C0B7
:1012F0008062FE01E85AFF4F0190F081E02D80836B
:10130000FE01E05BFF4F0190F081E02DD082FE01F5
:10131000EE5AFF4F0190F081E02DC082CA5ADF4F94
:10132000E881F98188E98083DF91CF911F910F9146
:10133000FF90EF90DF90CF90BF90AF909F908F90F5
:101340007F906F905F904F903F9008950F931F9301
:10135000CF93DF931F92CDB7DEB78C01DC01ED9107
:10136000FC910190F081E02D698309956981809756
:10137000D0F4F801848195810196958384838681D8
:101380009781E80FF91F628701968032910534F446
:10139000D80117969C938E93169703C0F801178275
:1013A000168281E001C080E00F90DF91CF911F9104
:1013B0000F9108951F920F920FB60F9211242F9341
:1013C0003F934F935F936F937F938F939F93AF93CD
:1013D000BF93EF93FF93E0917A02F0917B026081DB
:1013E0008CE292E00E94A609FF91EF91BF91AF912C
:1013F0009F918F917F916F915F914F913F912F912D
:101400000F900FBE0F901F9018951F920F920FB65E
:101410000F9211242F933F934F935F936F937F937A
:101420008F939F93AF93BF93EF93FF93E091D60277
:10143000F091D702608188E892E00E94A609FF91AE
:10144000EF91BF91AF919F918F917F916F915F913C
:101450004F913F912F910F900FBE0F901F901895B5
:1014600060E08CE792E00E94540861E080E292E044
:101470000C9454081F93CF93DF93182FEB01209700
:1014800021F460E00E94D10640E0143079F115307B
:1014900029F11630E9F1173099F1133169F014315F
:1014A00009F044C011C060E001C061E0812FDF910C
:1014B000CF911F910C94D10660E08CE193E00E94E3
:1014C000B40FAE0160E007C061E08CE193E00E94E0
:1014D000B40FAE0161E08CE193E023C060E08AEFDD
:1014E00092E00E94B40FAE0160E007C061E08AEFB5
:1014F00092E00E94B40FAE0161E08AEF92E011C069
:1015000060E088ED92E00E94B40FAE0160E007C099
:1015100061E088ED92E00E94B40FAE0161E088EDD9
:1015200092E0DF91CF911F910C94E10FC038D1056B
:1015300008F4B9CFBACFCF92DF92EF92FF920F9318
:101540001F93CF93DF936C01EB017A01E60EF71E38
:1015500000E010E00BC06991D601ED91FC91019083
:10156000F081E02DC6010995080F191FCE15DF0582
:1015700091F7C801DF91CF911F910F91FF90EF90EC
:10158000DF90CF900895DC01ED91FC910190F08106
:10159000E02D0994DC01ED91FC91DB0114964D9155
:1015A0005C9115976D917C910280F381E02D0994F7
:1015B0000F931F93CF93DF93EC016DE00E94C30A5A
:1015C0008C016AE0CE010E94C30A9C01200F311FEA
:1015D000C901DF91CF911F910F9108950F931F9330
:1015E000CF93DF93EC010E94CA0A8C01CE010E94C6
:1015F000D80A9C01200F311FC901DF91CF911F91A3
:101600000F910895FC01808191810C940C12CF936D
:10161000DF93EC0188819981009711F00E940C12F0
:10162000198218821D821C821B821A82DF91CF913F
:1016300008950F931F93CF93DF93EC018B016F5F9E
:101640007F4F888199810E94A912009731F0998378
:1016500088831B830A8381E001C080E0DF91CF9102
:101660001F910F910895CF93DF93EC0188819981A9
:10167000892B31F08A819B818617970708F00CC06F
:10168000CE010E94190B882349F08C819D81892B02
:1016900019F4E881F981108281E001C080E0DF91D6
:1016A000CF910895EF92FF920F931F93CF93DF9303
:1016B000EC017B018A01BA010E94330B811104C045
:1016C000CE010E94070B07C01D830C83B7018881E0
:1016D00099810E948713CE01DF91CF911F910F91C5
:1016E000FF90EF900895DC0111961C921E921396C4
:1016F0001C921E92129715961C921E921497169683
:101700001C926115710559F0DB010D900020E9F77D
:10171000AD0141505109461B570B0C94520B0895D3
:10172000CF93DF93EC01FB018617970761F060818F
:1017300071816115710529F0448155810E94520B18
:1017400002C00E94070BCE01DF91CF910895FC01EA
:1017500011821082138212821582148216820C94D6
:10176000900BCF93DF93D82FC92F6115710561F0CE
:10177000DB010D900020E9F7AD0141505109461BF6
:10178000570B0E94520B02C00E94070B8D2F9C2FFB
:10179000DF91CF910895CF93DF9300D0CDB7DEB71F
:1017A000FC01118210821382128215821482168229
:1017B00069831A82BE016F5F7F4F0E94B10B0F9049
:1017C0000F90DF91CF910895EF92FF920F931F93A7
:1017D000CF93DF93EC017B010C811D8161157105B5
:1017E00011F480E016C04115510591F0040F151F4A
:1017F000B8010E94330B8823A1F3288139818C81A1
:101800009D81B701820F931F0E9487131D830C8354
:1018100081E0DF91CF911F910F91FF90EF9008959C
:10182000FB0144815581608171810C94E40BEF923E
:10183000FF920F931F93CF93DF93CDB7DEB7289717
:101840000FB6F894DEBF0FBECDBF7C01CB014AE0DE
:1018500050E08E010F5F1F4FB8010E948E13F801F8
:1018600001900020E9F7AF0141505109401B510B95
:10187000B801C7010E94E40B28960FB6F894DEBFAA
:101880000FBECDBFDF91CF911F910F91FF90EF90D1
:101890000895CF93DF93D82FC92FFB014481558141
:1018A000608171810E94E40B811104C08D2F9C2FF7
:1018B0000E94070B8D2F9C2FDF91CF910895CF931E
:1018C000DF93D82FC92F6115710569F0DB010D90E9
:1018D0000020E9F7AD0141505109461B570B0E940A
:1018E000E40B811104C08D2F9C2F0E94070B8D2FBC
:1018F0009C2FDF91CF910895CF93DF93DC01ED9181
:10190000FC91EB01A881B981309711F01097C9F4CF
:10191000109759F0EB012C813D81232B31F02C9154
:1019200030E031952195310914C0309781F0DC0108
:1019300014968D919C911597892B49F0208130E068
:1019400008C0BD01CF01DF91CF910C947E1320E040
:1019500030E0C901DF91CF910895FC0144815581A8
:10196000FB01248135814217530729F40E947C0C26
:1019700021E0892B09F020E0822F0895FC01848169
:101980009581DB0114964D915C911597841795070D
:10199000A0F0208131812115310579F06D917C9184
:1019A0006115710551F0841B950B820F931F0E94E6
:1019B0007E139C0181E0232B09F080E0089563E011
:1019C0008CE193E00E949E0F21E046E156E060E04A
:1019D0008CE193E00E94740F64E08CE193E00E943C
:1019E000A10E61E08AEF92E00E949E0F64E08AEF10
:1019F00092E00E94A10E61E088ED92E00E949E0FAD
:101A000064E088ED92E00E94A10E789408951F9200
:101A10000F920FB60F9211242F933F934F935F9322
:101A20006F937F938F939F93AF93BF93EF93FF93A6
:101A3000E0913603F0913703309709F00995FF9153
:101A4000EF91BF91AF919F918F917F916F915F9136
:101A50004F913F912F910F900FBE0F901F901895AF
:101A60001F920F920FB60F9211242F933F934F9313
:101A70005F936F937F938F939F93AF93BF93EF93F6
:101A8000FF93E0913803F0913903309709F00995FD
:101A9000FF91EF91BF91AF919F918F917F916F9146
:101AA0005F914F913F912F910F900FBE0F901F901C
:101AB00018951F920F920FB60F9211242F933F93F8
:101AC0004F935F936F937F938F939F93AF93BF9346
:101AD000EF93FF93E0913403F0913503309709F0D1
:101AE0000995FF91EF91BF91AF919F918F917F9158
:101AF0006F915F914F913F912F910F900FBE0F907B
:101B00001F9018951F920F920FB60F9211242F93CA
:101B10003F934F935F936F937F938F939F93AF9375
:101B2000BF93EF93FF93E091F202F091F3023097AD
:101B300009F00995FF91EF91BF91AF919F918F911E
:101B40007F916F915F914F913F912F910F900FBEB9
:101B50000F901F9018951F920F920FB60F9211249D
:101B60002F933F934F935F936F937F938F939F93A5
:101B7000AF93BF93EF93FF93E091F402F091F502DE
:101B8000309709F00995FF91EF91BF91AF919F9127
:101B90008F917F916F915F914F913F912F910F9016
:101BA0000FBE0F901F9018951F920F920FB60F92B5
:101BB00011242F933F934F935F936F937F938F9352
:101BC0009F93AF93BF93EF93FF93E091F002F09157
:101BD000F102309709F00995FF91EF91BF91AF9114
:101BE0009F918F917F916F915F914F913F912F9135
:101BF0000F900FBE0F901F9018951F920F920FB667
:101C00000F9211242F933F934F935F936F937F9382
:101C10008F939F93AF93BF93EF93FF93E091140340
:101C2000F0911503309709F00995FF91EF91BF915D
:101C3000AF919F918F917F916F915F914F913F9164
:101C40002F910F900FBE0F901F9018951F920F921B
:101C50000FB60F9211242F933F934F935F936F937F
:101C60007F938F939F93AF93BF93EF93FF93E091F5
:101C70001603F0911703309709F00995FF91EF9142
:101C8000BF91AF919F918F917F916F915F914F9194
:101C90003F912F910F900FBE0F901F9018951F929C
:101CA0000F920FB60F9211242F933F934F935F9390
:101CB0006F937F938F939F93AF93BF93EF93FF9314
:101CC000E0911203F0911303309709F00995FF9109
:101CD000EF91BF91AF919F918F917F916F915F91A4
:101CE0004F913F912F910F900FBE0F901F9018951D
:101CF0001F920F920FB60F9211242F933F934F9381
:101D00005F936F937F938F939F93AF93BF93EF9363
:101D1000FF93E0911A03F0911B03309709F00995A6
:101D2000FF91EF91BF91AF919F918F917F916F91B3
:101D30005F914F913F912F910F900FBE0F901F9089
:101D40001895DC012C916150223039F4673068F429
:101D5000E62FF0E0E356FE4F06C0693030F4E62F80
:101D6000F0E0EC55FE4F208101C020E0DC011A9626
:101D7000ED91FC911B978081887F822B8083089551
:101D8000CF93DF93EC016883613011F120F0623072
:101D900009F06CC048C01B821A8286E490E09D83E3
:101DA0008C838EE690E09F838E8384E490E0998715
:101DB000888785E490E09B878A871D861C8687E458
:101DC00090E09F878E87198A188A88E490E022C065
:101DD0008FE690E09F838E8385E890E09B838A83E3
:101DE00084E890E09D838C8380E890E099878887E1
:101DF00081E890E09B878A8789E890E09D878C87BF
:101E000088E890E09F878E878BE890E0998B888B9D
:101E10008AE890E09B8B8A8B1D8A1C8A1F8A1E8A07
:101E200082E0898323C01B821A8282EB90E09D832B
:101E30008C8380E790E09F838E8380EB90E099878E
:101E4000888781EB90E09B878A871D861C8683EBC1
:101E500090E09F878E87198A188A84EB90E09B8B8D
:101E60008A8B1D8A1C8A1F8A1E8A698360E0CE01C4
:101E70000E94A10EEA81FB81309709F01082EC816B
:101E8000FD811082198E188E1B8E1A8E1D8E1C8E4F
:101E90001F8E1E8E19A218A2DF91CF91089551E0D6
:101EA000411101C050E06530F0F4E62FF0E0E35559
:101EB000FE4F408147FD17C0DC011696ED91FC9165
:101EC0001797808121E030E0042E01C0220F0A9490
:101ED000EAF720952823852F042E01C0880F0A9445
:101EE000EAF7282B20830895623099F028F46623BE
:101EF00041F06130C9F409C0633079F06430A1F475
:101F000010C0FC01518F408F0FC0FC01538F428FD6
:101F10000BC0FC01558F448F07C0FC01578F468FC3
:101F200003C0FC0151A340A3452B11F440E003C0C2
:101F3000222319F041E00C944F0F0895DC0118960C
:101F4000ED91FC9119973081262F23703C7F232B34
:101F500020831A96ED91FC911B9780816C70660F1F
:101F6000877E682B60830895FC018181681740F5A6
:101F70009081992311F0923011F4813049F0662359
:101F800029F0613029F0623031F404C026E003C04A
:101F900024E001C022E00084F185E02D308183E05F
:101FA00090E0022E01C0880F0A94EAF780958323FF
:101FB0004370022E01C0440F0A94EAF7842B8083F9
:101FC0000895FC0181816817F8F4611109C0A485A6
:101FD000B585109709F05C930684F785E02D13C052
:101FE000613049F4A089B189109709F05C930288A7
:101FF000F389E02D08C0623039F4A489B5895C9377
:102000000688F789E02D4083089560E08CE193E035
:102010000E94C00E61E08AEF92E00E94C00E62E072
:1020200088ED92E00C94C00E40D008F481E0089551
:10203000E89409C097FB3EF4909580957095619562
:102040007F4F8F4F9F4F9923A9F0F92F96E9BB2718
:102050009395F695879577956795B795F111F8CF94
:10206000FAF4BB0F11F460FF1BC06F5F7F4F8F4FFF
:102070009F4F16C0882311F096E911C0772321F0F5
:102080009EE8872F762F05C0662371F096E8862F8D
:1020900070E060E02AF09A95660F771F881FDAF7E4
:1020A000880F9695879597F90895990F0008550F11
:1020B000AA0BE0E8FEEF16161706E807F907C0F0CE
:1020C00012161306E407F50798F0621B730B840BD6
:1020D000950B39F40A2661F0232B242B252B21F4B0
:1020E00008950A2609F4A140A6958FEF811D811D50
:1020F000089597F99F6780E870E060E008959FEF8A
:1021000080EC089500240A9416161706180609068E
:10211000089500240A94121613061406050608955D
:10212000092E0394000C11F4882352F0BB0F40F4E5
:10213000BF2B11F460FF04C06F5F7F4F8F4F9F4F25
:10214000089557FD9058440F551F59F05F3F71F0A7
:102150004795880F97FB991F61F09F3F79F087950E
:102160000895121613061406551FF2CF4695F1DF97
:1021700008C0161617061806991FF1CF8695710527
:10218000610508940895E894BB2766277727CB015B
:1021900097F908950BD0C4CFB5DF28F0BADF18F057
:1021A000952309F0A6CFABCF1124EECFCADFA0F361
:1021B000959FD1F3950F50E0551F629FF001729FDC
:1021C000BB27F00DB11D639FAA27F00DB11DAA1FFB
:1021D000649F6627B00DA11D661F829F2227B00D48
:1021E000A11D621F739FB00DA11D621F839FA00DD3
:1021F000611D221F749F3327A00D611D231F849F23
:10220000600D211D822F762F6A2F11249F57504079
:102210008AF0E1F088234AF0EE0FFF1FBB1F661F14
:10222000771F881F91505040A9F79E3F510570F0CD
:1022300060CFAACF5F3FECF3983EDCF386957795AD
:102240006795B795F795E7959F5FC1F7FE2B880FC8
:10225000911D9695879597F90895A1E21A2EAA1BCC
:10226000BB1BFD010DC0AA1FBB1FEE1FFF1FA21746
:10227000B307E407F50720F0A21BB30BE40BF50B43
:10228000661F771F881F991F1A9469F760957095CC
:10229000809590959B01AC01BD01CF010895052E5D
:1022A00097FB16F4009407D057FD0DD00E942D1116
:1022B00007FC09D07EF490958095709561957F4FCD
:1022C0008F4F9F4F089550954095309521953F4FE2
:1022D0004F4F5F4F0895EE0FFF1F0590F491E02DD3
:1022E00009940F931F93CF93DF938230910510F4DD
:1022F00082E090E0E0914003F091410320E030E083
:10230000C0E0D0E023C04081518148175907A8F0B0
:102310004817590761F482819381209719F09B83B4
:102320008A832EC0909341038093400329C02115D6
:10233000310529F04217530710F0A90102C0BE0170
:10234000DF0102811381EF019A01F8013097D9F67C
:102350002115310509F1281B390B2430310590F482
:1023600012968D919C9113976115710521F0FB01D7
:102370009383828304C09093410380934003FD01C3
:10238000329644C0FD01E20FF31F819391932250D6
:1023900031092D933C933AC020913E0330913F0385
:1023A000232B41F4209102013091030130933F032C
:1023B00020933E0320910001309101012115310548
:1023C00041F42DB73EB74091040150910501241B03
:1023D000350BE0913E03F0913F03E217F307A0F4C1
:1023E0002E1B3F0B2817390778F0AC014E5F5F4F6B
:1023F0002417350748F04E0F5F1F50933F0340935B
:102400003E038193919302C0E0E0F0E0CF01DF91C1
:10241000CF911F910F910895EF92FF920F931F9309
:10242000CF93DF93009709F48FC0DC0112971396C6
:102430001C921E921297E0904003F0904103E11429
:10244000F10489F42D913C911197280F391F809147
:102450003E0390913F038217930789F5B0933F03A2
:10246000A0933E0371C0E70120E030E001C0EA0123
:10247000CA17DB0738F44A815B819E01411551057B
:10248000B1F722C0BC0162507109FB01D383C28342
:1024900000811181AC01400F511F4C175D0761F4A1
:1024A00048815981400F511F4E5F5F4F51834083D8
:1024B0004A815B81538342832115310529F4B0930E
:1024C0004103A093400340C0F901B383A283E90113
:1024D00069917991C60FD71FAC17BD0779F4DC015C
:1024E0005E914E91460F571F4E5F5F4F5183408361
:1024F00012968D919C91139793838283A0E0B0E014
:1025000002C0D7017C01F701828193810097C9F74E
:10251000C701029620813181820F931F20913E03D3
:1025200030913F032817390779F4109729F4109256
:1025300041031092400304C013961C921E921297FE
:10254000F0923F03E0923E03CDB7DEB7E6E00C9495
:10255000FB13A0E0B0E0EFEAF2E10C94D913EC0138
:10256000009729F4CB010E947111EC01B8C0DC0185
:10257000A60FB71FFC013297AE17BF0718F4C0E0D3
:10258000D0E0ADC00081118106171707B0F005300B
:10259000110508F4A4C0C80104978617970708F42A
:1025A0009EC002501109061B170B0D931D937183DA
:1025B0006083CD010E940C1292C07B01E01AF10AE7
:1025C0005C01A00EB11EE0914003F0914103812C0B
:1025D000912C80E090E04CC0EA15FB05F1F54081BC
:1025E00051816A0122E0C20ED11CCE14DF04A8F191
:1025F0009A012E193F097901690132E0C30ED11CFD
:102600002EEFA22EBB24BA94AC0EBD1E25E0C2163E
:10261000D10478F04281538113965C934E931297C4
:102620001196FC92EE92F501718360833A2F2B2F65
:1026300009C00E5F1F4F040F151FD5010D931C938A
:1026400032812381009721F0FC013283238347C02C
:10265000309340032093410342C0808191818816CA
:10266000990608F44C0152814381CF01E52FF42FE4
:10267000309709F0B1CF80913E0390913F038A15C6
:102680009B05F1F486169706D8F48091000190918D
:102690000101009741F48DB79EB72091040130915C
:1026A0000501821B930BA817B90708F068CFB093F8
:1026B0003F03A0933E03FE013297718360830FC0F6
:1026C000CB010E9471117C01009709F458CFA80139
:1026D000BE010E947513CE010E940C12E701CE01CB
:1026E000CDB7DEB7ECE00C94F513FB01DC0102C0C2
:1026F00001900D9241505040D8F70895FB01DC0144
:102700008D91019080190110D9F3990B0895FB0167
:10271000DC0101900D920020E1F70895FB019F017B
:10272000E8944230C4F04532B4F44A3029F497FBBF
:102730001EF4909581959F4F642F77270E94BF13B9
:10274000805D8A330CF0895D8193CB010097A1F7FE
:1027500016F45DE251931082C9010C94AF13DC01B1
:10276000FC01672F71917723E1F7329704C07C91C8
:102770006D9370836291AE17BF07C8F30895AA1BCB
:10278000BB1B51E107C0AA1FBB1FA617B70710F05C
:10279000A61BB70B881F991F5A95A9F7809590958E
:1027A000BC01CD0108952F923F924F925F926F929C
:1027B0007F928F929F92AF92BF92CF92DF92EF92D1
:1027C000FF920F931F93CF93DF93CDB7DEB7CA1B52
:1027D000DB0B0FB6F894DEBF0FBECDBF09942A887D
:1027E000398848885F846E847D848C849B84AA8425
:1027F000B984C884DF80EE80FD800C811B81AA81B2
:10280000B981CE0FD11D0FB6F894DEBF0FBECDBF7C
:10281000ED01089510E0C2E8D0E004C0FE010E947E
:0E2820006D112296C438D107C9F7F894FFCF86
:10282E000000420320000504030908070631323375
:10283E003435363738392A30230E000F0001017B2C
:10284E00226964223A002C22616C657274223A224B
:10285E0000227D002A0023006D6F74696F6E206464
:10286E006574656374656400737573706963696F0D
:10287E00757320617474656D7074006C6F7720626F
:10288E00617474657279006C6F6E67206F70656E1F
:10289E00696E670031323334000000000054079B2C
:1028AE000A06070B0731071F07000000002C07ACB4
:1028BE0007B207000000002707A007A607010203C2
:1028CE0004050607010200030004050607000102C5
:0228DE000305F0
:00000001FF
