:100000000C9442000C946A000C946A000C946A00F0
:100010000C946A000C946A000C946A000C946A00B8
:100020000C946A000C94CB100C94F4100C941D11D9
:100030000C94C1110C9446110C946F110C949811EE
:100040000C9450100C9479100C94A2100C946A002B
:100050000C94AE0C0C94610A0C946A000C946A0027
:100060000C946A000C946A000C946A000C946A0068
:100070000C94830C0C94AF0A0C946A00E704D90C1E
:100080004E13340511241FBECFEFD0E1DEBFCDBF2C
:1000900011E0A0E0B1E0E2E0F0E302C005900D92D3
:1000A000AE3FB107D9F713E0AEEFB1E001C01D924A
:1000B000A83EB107E1F710E0C2E8D0E004C0229703
:1000C000FE010E94DE14CC37D107C9F70E94A809AF
:1000D0000C94F4170C9400000F931F93CF93DF93AD
:1000E000EB018A0142E0BC018DE00E94E30C42E09A
:1000F000BE018CE00E94E30C42E0B8018AE0DF918F
:10010000CF911F910F910C94E30C40E050E060E020
:1001100070E08FEF90E00E946C00299A089581E0D2
:100120008093420240E050E06FEF70E080E090E0AA
:100130000C946C00109242024FEF50E060E070E0CF
:1001400080E090E00C946C00882311F0299A0895C7
:100150002998089581110C9485004FEF50E060E0DC
:1001600070E080E090E00E946C0080E00C94A400BD
:100170000F931F93CF93DF93CDB7DEB72E970FB6B4
:10018000F894DEBF0FBECDBF8C016FE171E0CE01F0
:1001900008960E94460E61E070E0CE0108960E942B
:1001A0002A0F66E271E0CE0101960E94460EB80168
:1001B000CE0101960E945C0F61E371E00E94720F14
:1001C000BC01CE0108960E94100FCE0101960E943C
:1001D000D50DBE01685F7F4F82E293E00E94AD0DB6
:1001E000CE0108960E94D50D2E960FB6F894DEBF6C
:1001F0000FBECDBFDF91CF911F910F9108958F92C8
:100200009F92AF92BF92FF920F931F93CF93DF9372
:10021000CDB7DEB727970FB6F894DEBF0FBECDBFC0
:100220008C010E94F408609335027093360280932B
:100230003702909338020E94F40860933E02709354
:100240003F028093400290934102FF24F3947AC0CE
:100250000E94F4088090350290903602A0903702F8
:10026000B0903802681979098A099B09603375478B
:1002700081059105D0F00E94850080914302811193
:1002800066C00E94F40880903E0290903F02A090C9
:100290004002B0904102681979098A099B096031CE
:1002A00077428105910508F052C00130110561F4D3
:1002B000339948C0F09243020E949A0080E00E9465
:1002C000AA0010923D023AC001151105D9F588E047
:1002D00092E00E941207882381F0682FCE010196D8
:1002E0000E94CB0EBE016F5F7F4F81E092E00E94C3
:1002F000100FCE0101960E94D50D64E371E0CE018E
:1003000001960E94460EBE016F5F7F4F81E092E032
:100310000E94D10FB82ECE0101960E94D50DBB20B0
:1003200089F080E00E94AA000E949A00F0924302A5
:1003300060E371E081E092E00E94840E1092270257
:100340001092260280914202811182CF1BC010922E
:1003500043020E94F40860933E0270933F02809330
:100360004002909341026BE872E0CE0101960E9438
:100370007A0ECE0101960E94B800CE0101960E942D
:10038000D50D93CF27960FB6F894DEBF0FBECDBF25
:10039000DF91CF911F910F91FF90BF90AF909F90F1
:1003A0008F9008950F931F93CF93DF93CDB7DEB750
:1003B00027970FB6F894DEBF0FBECDBF2AE939E903
:1003C00049E95FE3609146027091470280914802DB
:1003D000909149020E945D13181624F081E08093E9
:1003E000450205C01092450281E08093440280914D
:1003F00045028823C9F0289A0E94F4080091390226
:1004000010913A0220913B0230913C02601B710B2B
:10041000820B930B603375478105910538F4809109
:100420004402811103C026C0289824C010924402BF
:100430000E94F4086093390270933A0280933B0261
:1004400090933C0269E972E0CE0101960E947A0E17
:10045000CE0101960E94B800CE0101960E94D50DF2
:10046000299A60ED77E080E090E00E94060980E044
:100470000E94A40027960FB6F894DEBF0FBECDBF32
:10048000DF91CF911F910F9108955F926F927F92AC
:100490008F929F92AF92BF92CF92DF92EF92FF9294
:1004A0000F931F93CF93DF93CDB7DEB727970FB688
:1004B000F894DEBF0FBECDBF3C0193E1A92EB12C55
:1004C000E12CF12C03E010E0B7018CEB92E00E94EC
:1004D000F506C82ED12C2BC0C0FC05C00E5F1F4FE7
:1004E000D594C79424C0B8018CEB92E00E94F50625
:1004F000582EB8016F5F7F4F8CEB92E00E94F5069B
:10050000982E812CB401650D711D4AE0CE01019633
:100510000E949E0EB301CE0101960E94C00F582E7C
:10052000CE0101960E94D50D5520C1F211C0C11413
:10053000D10491F68FEFE81AF80A850180E1A80E40
:10054000B11C83E0E816F10409F0BECF80E001C0E1
:1005500081E027960FB6F894DEBF0FBECDBFDF91C6
:10056000CF911F910F91FF90EF90DF90CF90BF90B0
:10057000AF909F908F907F906F905F900895CF92F3
:10058000DF92EF92FF920F931F93CF93DF93CDB73C
:10059000DEB76C01CB01EDB6FEB6FB01448155819F
:1005A0004F5F5F4F2DB73EB7241B350B0FB6F89446
:1005B0003EBF0FBE2DBF0DB71EB70F5F1F4F20E010
:1005C00030E0B8010E94F20F66E371E0C8010E94BA
:1005D0000D1786010CC0BC01C8010E94840E66E3A1
:1005E00071E080E090E00E940D17095F1F4F0097B7
:1005F00091F70FB6F894FEBE0FBEEDBEDF91CF911E
:100600001F910F91FF90EF90DF90CF9008950F937F
:100610001F93CF93DF938C01EB0160E071E00E94A8
:100620007614BE01660F771F6D5F7F4F482F8CEBEE
:1006300092E00E94F806A80117FF02C041505F4FE8
:10064000452F550F550BBE016E5F7F4F660F771F0D
:100650008CEB92E00E94F8068E01D7FF02C0095F82
:100660001F4F23E0159507952A95E1F71127B8014B
:100670008CEB92E00E94F506482FCE0168E070E016
:100680000E94761421E030E001C0220F8A95EAF73B
:10069000422BB8018CEB92E0DF91CF911F910F912B
:1006A0000C94F8060F931F93CF93DF938C01EB010B
:1006B00060E071E00E947614BE01660F771F6D5FE7
:1006C0007F4F482F8CEB92E00E94F806A80117FF9D
:1006D00002C041505F4F452F550F550BBE016E5F55
:1006E0007F4F660F771F8CEB92E0DF91CF911F91C8
:1006F0000F910C94F8060F931F93CF93DF938C0107
:10070000EC0197FD279683E0D595C7958A95E1F78B
:10071000DD27BE018CEB92E00E94F506482FC80150
:1007200068E070E00E94761421E030E001C0220F02
:100730008A95EAF74227BE018CEB92E0DF91CF91D8
:100740001F910F910C94F80640E060E070E08CEB94
:1007500092E00E94F80640E061E070E08CEB92E0ED
:100760000E94F80640E062E070E08CEB92E00C94AE
:10077000F806EF920F93E12C01E028E040E855E203
:1007800060E070E082E293E00E94810B0E94F40836
:1007900060932C0270932D0280932E0290932F026F
:1007A0000E94A40361E070E082ED94E00E940703E0
:1007B00060E371E081E092E00E94840E10924202B8
:1007C00081E080934402809343021092340210929D
:1007D00000021092450228E040E855E260E070E037
:1007E00082E293E00E94810B10923D02209A0898C9
:1007F0003D9A3C9A3A9A3B984FEF50E060E070E0A7
:1008000080E090E00E946C0061E080911B010E94FA
:10081000280960E0809119010E942809219A28E0A6
:1008200040E855E260E070E082E293E00E94810BD4
:100830000F91EF900895CF92DF92EF92FF92CF93B6
:10084000DF93CDB7DEB76C970FB6F894DEBF0FBE5F
:10085000CDBF80918302882309F480C060E371E0FA
:10086000CE0101960E94460E60E371E0CE0108962B
:100870000E94460E60E371E0CE010F960E94460E84
:100880006CE772E0CE0146960E947A0EBE016A5E67
:100890007F4FCE0101960E94BF02CE0146960E9474
:1008A000D50D60EA72E0CE0101960E94C00F882348
:1008B00081F0CE0108960E941C106B017C01CE01D4
:1008C0000F960E941C10DC01CB01B6010E940703A9
:1008D00031C067EA72E0CE0101960E94C00F882302
:1008E00081F0CE0108960E941C106B017C01CE01A4
:1008F0000F960E941C10DC01CB01B6010E9452032E
:1009000019C06EEA72E0CE0101960E94C00F8823E2
:1009100041F0CE0108960E941C10CB010E947B037F
:1009200009C065EB72E0CE0101960E94C00F8111F3
:100930000E94A40360E371E08CE792E00E94840EC1
:1009400010928302CE010F960E94D50DCE0108961B
:100950000E94D50DCE0101960E94D50D6C960FB662
:10096000F894DEBF0FBECDBFDF91CF91FF90EF9027
:10097000DF90CF9008950E94F408AB01BC01409332
:100980002C0250932D0260932E0270932F028091BF
:10099000300290913102A0913202B0913302815A1B
:1009A0009541AF4FBF4F84179507A607B70774F45B
:1009B00040933002509331026093320270933302BD
:1009C00068E371E082E293E00C94C10D0895EF9228
:1009D0000F9360E371E08CE792E00E94460E64E4BE
:1009E00071E080EA92E00E94460E61E571E087EADC
:1009F00092E00E94460E61E671E08EEA92E00E946B
:100A0000460E61E771E085EB92E00E94460E66E8D3
:100A100071E084E892E00E94460E66E971E082E9A6
:100A200092E00E94460E69EA71E089E992E00E9434
:100A3000460E65EB71E08BE892E00E94460E93E073
:100A4000E92E04E026E031E049E051E06DE071E09C
:100A500088E092E00E945C0860E371E081E092E04F
:100A60000F91EF900C94460E81E092E00E94D50D1C
:100A70008BE892E00E94D50D89E992E00E94D50DA5
:100A800082E992E00E94D50D84E892E00E94D50DA3
:100A900085EB92E00E94D50D8EEA92E00E94D50D82
:100AA00087EA92E00E94D50D80EA92E00E94D50D7F
:100AB0008CE792E00C94D50DCF93DF93D1E018C072
:100AC00082E293E00E94DA09C82F682F8CE792E057
:100AD0000E94170FCA3061F420E030E042E350E09A
:100AE0006AE472E08CE792E00E94F20FD0938302F6
:100AF00082E293E00E94AF09892B11F7DF91CF9139
:100B000008950F931F93CF93DF93CDB7DEB7279749
:100B10000FB6F894DEBF0FBECDBF0E94BB0488E1C4
:100B20000E948F08BC01882777FD8095982F0E942E
:100B300063132DEC3CEC4CEA50E40E94131420E0CB
:100B400030E040E85AE30E94131460934602709329
:100B5000470280934802909349020E94D2018091FB
:100B600019010E945609082F10E0109329020093E2
:100B7000280201301105F1F461E080911B010E940F
:100B80007A0980912A0290912B02892B11F564E851
:100B900072E0CE0101960E947A0ECE0101960E946B
:100BA000B800CE0101960E94D50D10932B02009340
:100BB0002A020FC060E080911B010E947A09809197
:100BC0002A0290912B02019721F410922B0210928D
:100BD0002A0280913D02811118C0339B47C00E94B8
:100BE000F408609335027093360280933702909335
:100BF000380281E080933D020E948F0081E090E006
:100C00000E94FF001092340231C0339B24C00E9426
:100C1000F40800913502109136022091370230918C
:100C20003802601B710B820B930B683B7B40810584
:100C30009105E0F00E9485006BE872E0CE0101961C
:100C40000E947A0ECE0101960E94B800CE01019654
:100C50000E94D50D0BC00E949A0080E00E94AA005D
:100C600010923D02109227021092260280910002FB
:100C7000811107C088E092E00E941207882311F1D9
:100C800001C0FFCF682FCE0101960E94CB0EBE019E
:100C90006F5F7F4F81E092E00E94100FCE010196BE
:100CA0000E94D50D40E050E06FEF70E080E090E0F2
:100CB0000E946C004FEF50E060E070E080E090E058
:100CC0000E946C0062EC71E0CE0101960E94460E1B
:100CD000BE016F5F7F4F81E092E00E94D10F8823B9
:100CE00039F011E08091050290910602059708F015
:100CF00010E0CE0101960E94D50D112331F060E382
:100D000071E081E092E00E94840E80910502909152
:100D10000602049781F561E072E0CE0101960E941F
:100D20007A0ECE0101960E944502182FCE0101963F
:100D30000E94D50D112349F00E948F0080E090E0C1
:100D40000E94FF001092340216C0809134028F5F1F
:100D50008093340260E371E081E092E00E94840EAF
:100D60000E94850068EE73E080E090E00E94060932
:100D700080E00E94AA0080913402833008F160E391
:100D800071E081E092E00E94840E1092340262E9E8
:100D900072E0CE0101960E947A0ECE0101960E9469
:100DA000B800CE0101960E94D50D0E94850068EB27
:100DB0007BE080E090E00E94060980E00E94AA00AB
:100DC0000E945C050E941B0464E670E080E090E0F5
:100DD0000E94060927960FB6F894DEBF0FBECDBF5E
:100DE000DF91CF911F910F910895CB010C9497172C
:100DF000CB01642F0C949F17DC0118968D919C9168
:100E000019978617970769F019967C936E93189730
:100E10005C96ED91FC915D97309719F01A968C9144
:100E2000099408954F925F926F927F92AF92BF9212
:100E3000CF92DF92EF92FF920F931F93CF93DF93A6
:100E4000EC01A12CA8C00A2D10E0EC81FD81E00F7F
:100E5000F11F60E080810E947A09B12C68018EC088
:100E6000EB2CF12C8F81E881F981EC0DFD1DB89EF2
:100E7000E00DF11D11249A85808198133CC00E94D9
:100E8000F4084E845F846888798864197509860936
:100E900097094A8C5B8C612C712C6415750586054D
:100EA000970550F0EA81FB81EE0DFF1D80810E94C5
:100EB0005609882309F498C00E94F4084E845F8480
:100EC000688879886419750986099709488C598C4E
:100ED000612C712C641575058605970508F493C07F
:100EE000EA81FB81EB0DF11D80810E945609813062
:100EF00009F089C07FC00E94F4084E845F8468882E
:100F000079886419750986099709488C598C612C70
:100F1000712C641575058605970578F1EA81FB81CA
:100F2000EE0DFF1D80810E945609811126C0EC81C3
:100F3000FD81E00FF11F61E080810E947A092F811D
:100F40002E9DC0012F9D900D1124E881F981EC0D9B
:100F5000FD1DE80FF91FF0808E859F85A889B9894E
:100F60008A8B9B8BAC8BBD8B0E94F4086E877F872E
:100F7000888B998BF11015C005C0B3948E81B8167B
:100F800008F46ECFEC81FD81E00FF11F61E08081FC
:100F90000E947A09A3948F81A81608F454CF80E0A8
:100FA00040C08B85F81239C00E94F4080A891B8959
:100FB0002C893D89601B710B820B930B0E891F8955
:100FC00020E030E0061717072807390710F525C07D
:100FD00081E090E09D878C87FA8661E070E0CE0129
:100FE0000E94FC068A851DC063E070E0CE010E946D
:100FF000FC0662CF62E070E0CE010E94FC068A85AA
:101000008B871A86BFCF88859985039709F0B5CF5E
:10101000B9CF8C859D850196DDCF8A85F812D8CF12
:10102000BECFDF91CF911F910F91FF90EF90DF9096
:10103000CF90BF90AF907F906F905F904F9008954A
:10104000FF920F931F93CF93DF93EC01F12C13C00A
:101050000F2D10E0EA81FB81E00FF11F60E080813D
:101060000E942809EA81FB81E00FF11F61E0808185
:101070000E947A09F3948E81F81650F3F12C13C074
:101080000F2D10E0EC81FD81E00FF11F61E0808108
:101090000E942809EC81FD81E00FF11F61E0808151
:1010A0000E947A09F3948F81F81650F3DF91CF9163
:1010B0001F910F91FF900895EF920F93FC015383BE
:1010C0004283358324830683E78271836083168697
:1010D0001786108A118A128A138A148A158A8CE25A
:1010E00091E0978B868B82E390E0918F808F88EEE2
:1010F00093E0938F828F158E148E1286138611863D
:10110000108615861486CF010F91EF900C9420085D
:1011100080E480937C0087E880937A000895CF93E1
:10112000DF931F92CDB7DEB790911D01913031F45E
:1011300089830E94880810921D01898187702091FF
:101140001E0140E4249F90011124822B80937C0097
:1011500080917A00806480937A0080917A0086FD85
:10116000FCCF2091780030917900932F80E0FC0132
:10117000E22B9F01C9010F90DF91CF9108958091DB
:10118000BE029091BF02A091C002B091C102309105
:10119000BD02232F2D5F2D3720F40196A11DB11D17
:1011A00005C0232F2A570296A11DB11D2093BD0211
:1011B0008093BE029093BF02A093C002B093C1027D
:1011C0008091C2029091C302A091C402B091C50265
:1011D0000196A11DB11D8093C2029093C302A093FA
:1011E000C402B093C50208950F931F938FB7F8946C
:1011F0000091BE021091BF022091C0023091C10245
:101200008FBFB801C9011F910F9108958F929F92CE
:10121000AF92BF92CF92DF92EF92FF926B017C016F
:101220000E94F4084B015C010E94F40868197909D6
:101230008A099B096C157D058E059F05A8F3FF9013
:10124000EF90DF90CF90BF90AF909F908F900895D8
:10125000982F977021E030E0092E01C0220F0A94E8
:10126000EAF786958695869581F0813089F08230FF
:1012700091F08330D1F412C080812095822302C086
:101280008081822B80839FBF0895EAE2F0E008C04E
:10129000E7E2F0E005C0E4E2F0E002C0E1E2F0E005
:1012A0009FB7F894662341F3EBCF0895982F97707A
:1012B00021E030E001C0220F9A95EAF786958695E5
:1012C000869539F0813041F0823049F0833051F019
:1012D0000895E9E2F0E008C0E6E2F0E005C0E3E2EC
:1012E000F0E002C0E0E2F0E09081922381E009F4B6
:1012F00080E00895982F977021E030E0092E01C01A
:10130000220F0A94EAF786958695869581F08130BA
:1013100089F0823091F08330D1F412C08081209521
:10132000822302C08081822B80839FBF0895EBE2DD
:10133000F0E008C0E8E2F0E005C0E5E2F0E002C05D
:10134000E2E2F0E09FB7F894662341F3EBCF089513
:101350000E9428100E94B9030E948105FDCFFC0164
:1013600020893189C9010895DC0150962D913C9165
:101370005197232B49F05496ED91FC915597E80F26
:10138000F91F268930E002C02FEF3FEFC901089511
:10139000FC01118A108A158A148A138A128A089508
:1013A000FC0124813581C9010895FC012481358126
:1013B000C9010895FC0180899189892BD1F03FB73B
:1013C000F894808991890197918B808B8489958984
:1013D000DF01A80FB91F56962C9101968032910516
:1013E0001CF4958B848B02C0158A148A3FBF30E0B1
:1013F00002C02FEF3FEFC9010895EF92FF921F93B4
:10140000CF93DF931F92CDB7DEB77C01D701DA9679
:101410008D919C91DB974097C8F71FB7F894D696AB
:10142000ED91FC91D7970190F081E02DC701C69610
:101430006983099569814097C8F4F70182AD93AD3E
:10144000019693AF82AF84AD95ADE80FF91FE05CD4
:10145000FF4F60830196D701DD969C938E93DC97B6
:10146000409724F0DD961C921E92DC97F701EA5A11
:10147000FF4F0190F081E02D8081806280831FBF4B
:1014800081E090E00F90DF91CF911F91FF90EF905E
:101490000895665F7F4F680F791FCB010895665FDF
:1014A0007F4F680F791FCB010895665F7F4F680FEC
:1014B000791FCB010895665F7F4F680F791FCB01BD
:1014C00008951F920F920FB60F9211242F938F93AE
:1014D0009F93AF93BF93EF93FF9380915C039091A1
:1014E0005D03892B21F1E0917C03F0917D038091D4
:1014F0005C0390915D03019790935D0380935C037F
:101500008091600390916103DC01A85ABC4F1A9648
:101510002C910196803191052CF490936103809376
:10152000600304C0109261031092600320838091D5
:101530005C0390915D03892B31F4E0917803F09185
:10154000790388E98083FF91EF91BF91AF919F91DB
:101550008F912F910F900FBE0F901F9018951F9293
:101560000F920FB60F9211242F938F939F93AF93E7
:10157000BF93EF93FF938091000390910103892B18
:1015800021F1E0912003F0912103809100039091DB
:10159000010301979093010380930003809104035A
:1015A00090910503DC01A450BD4F1A962C91019631
:1015B000803191052CF4909305038093040304C0BB
:1015C00010920503109204032083809100039091F0
:1015D0000103892B31F4E0911C03F0911D0388E98C
:1015E0008083FF91EF91BF91AF919F918F912F9148
:1015F0000F900FBE0F901F901895FC01262F13829D
:10160000128248EE53E060E070E0448355836683C5
:10161000778388EC91E09183808388ED91E09587D2
:10162000848780E290E097878687118A108A158ADE
:10163000148A138A128A82EE91E097AB86AB80E11E
:1016400090E091AF80AF13AE12AE17AE16AE15AEEE
:1016500014AE222321F0213009F052C028C0DF014E
:10166000A05BBF4F85EC90E08D939C93DF01AE5A59
:10167000BF4F84EC90E08D939C93DF01AC5ABF4F39
:1016800080EC90E08D939C93DF01AA5ABF4F81ECD0
:1016900090E08D939C93DF01A85ABF4F82EC90E0BD
:1016A0008D939C93E65AFF4F86EC90E027C0DF01B4
:1016B000A05BBF4F8DEC90E08D939C93DF01AE5A01
:1016C000BF4F8CEC90E08D939C93DF01AC5ABF4FE1
:1016D00088EC90E08D939C93DF01AA5ABF4F89EC70
:1016E00090E08D939C93DF01A85ABF4F8AEC90E065
:1016F0008D939C93E65AFF4F8EEC90E0918380830C
:1017000008953F924F925F926F927F928F929F9235
:10171000AF92BF92CF92DF92EF92FF920F931F93FF
:10172000CF93DF93EC014A015B01122F3E2C60E066
:1017300072E18AE790E0A50194010E948A14690190
:101740007A0184E0C80ED11CE11CF11C83E0F69400
:10175000E794D794C7948A95D1F760E074E284EF58
:1017600090E0A50194010E948A1429013A0194E0B5
:10177000490E511C611C711C93E076946794579438
:1017800047949A95D1F7A30192014427552760E821
:1017900074E88EE190E00E94AC145901A818B908D1
:1017A000B7FE03C0B194A194B108A70196014427E4
:1017B000552760E472E48FE090E00E94AC14281991
:1017C000390937FF03C0319521953109FE01EC5AE3
:1017D000FF4F0190F081E02DA216B3063CF482E0A9
:1017E0008083620181E0C81AD10804C0108291E0B0
:1017F000C91AD1081630C1F018F4153099F405C093
:10180000173029F0193071F404C080E00EC084E074
:101810000CC0FE01EA5AFF4F0190F081E02D80815B
:101820008460808386E001C082E0023009F4886031
:1018300091E0391621F092E0391204C002C08063B1
:1018400001C08062FE01E85AFF4F0190F081E02D57
:101850008083FE01E05BFF4F0190F081E02DD0829C
:10186000FE01EE5AFF4F0190F081E02DC082CA5A6E
:10187000DF4FE881F98188E98083DF91CF911F9163
:101880000F91FF90EF90DF90CF90BF90AF909F901F
:101890008F907F906F905F904F903F9008950F933F
:1018A0001F93CF93DF931F92CDB7DEB78C01DC017E
:1018B000ED91FC910190F081E02D6983099569819A
:1018C0008097D0F4F8018481958101969583848373
:1018D00086819781E80FF91F628701968032910512
:1018E00034F4D80117969C938E93169703C0F80191
:1018F0001782168281E001C080E00F90DF91CF91C6
:101900001F910F9108951F920F920FB60F921124FD
:101910002F933F934F935F936F937F938F939F93F7
:10192000AF93BF93EF93FF93E0912003F0912103D6
:10193000608182ED92E00E944F0CFF91EF91BF9188
:10194000AF919F918F917F916F915F914F913F9157
:101950002F910F900FBE0F901F9018951F920F920E
:101960000FB60F9211242F933F934F935F936F9372
:101970007F938F939F93AF93BF93EF93FF93E091E8
:101980007C03F0917D0360818EE293E00E944F0C16
:10199000FF91EF91BF91AF919F918F917F916F9147
:1019A0005F914F913F912F910F900FBE0F901F901D
:1019B000189560E082E293E00E94FD0A61E086EC07
:1019C00092E00C94FD0A1F93CF93DF93182FEB0145
:1019D000209721F460E00E947A0940E0143079F108
:1019E000153029F11630E9F1173099F1133169F00A
:1019F000143109F044C011C060E001C061E0812FE2
:101A0000DF91CF911F910C947A0960E082EC93E012
:101A10000E94FD12AE0160E007C061E082EC93E03D
:101A20000E94FD12AE0161E082EC93E023C060E011
:101A300080EA93E00E94FD12AE0160E007C061E021
:101A400080EA93E00E94FD12AE0161E080EA93E03B
:101A500011C060E08EE793E00E94FD12AE0160E0ED
:101A600007C061E08EE793E00E94FD12AE0161E0E5
:101A70008EE793E0DF91CF911F910C942A13C03829
:101A8000D10508F4B9CFBACFCF92DF92EF92FF928F
:101A90000F931F93CF93DF936C01EB017A01E60E56
:101AA000F71E00E010E00BC06991D601ED91FC91AA
:101AB0000190F081E02DC6010995080F191FCE1580
:101AC000DF0591F7C801DF91CF911F910F91FF9032
:101AD000EF90DF90CF9008956115710581F0DB01E3
:101AE0000D900020E9F7AD0141505109461B570BFD
:101AF000DC01ED91FC910280F381E02D099480E0FE
:101B000090E00895DC01ED91FC910190F081E02DD1
:101B10000994DC01ED91FC91DB0114964D915C91EF
:101B200015976D917C910280F381E02D09940F93BC
:101B30001F93CF93DF93EC016DE00E94820D8C0127
:101B40006AE0CE010E94820D9C01200F311FC90165
:101B5000DF91CF911F910F9108950F931F93CF9312
:101B6000DF93EC010E94890D8C01CE010E94970D3C
:101B70009C01200F311FC901DF91CF911F910F915F
:101B800008950F931F93CF93DF93EC010E946C0D88
:101B90008C01CE010E94970D9801280F391FC901B1
:101BA000DF91CF911F910F910895FC018081918168
:101BB0000C947D15CF93DF93EC0188819981009778
:101BC00011F00E947D15198218821D821C821B82D1
:101BD0001A82DF91CF9108950F931F93CF93DF93D4
:101BE000EC018B016F5F7F4F888199810E941A16EB
:101BF000009731F0998388831B830A8381E001C0B9
:101C000080E0DF91CF911F910F910895CF93DF93E3
:101C1000EC0188819981892B31F08A819B8186171B
:101C2000970708F00CC0CE010E94EC0D882349F004
:101C30008C819D81892B19F4E881F981108281E0E2
:101C400001C080E0DF91CF910895EF92FF920F9352
:101C50001F93CF93DF93EC017B018A01BA010E94AD
:101C6000060E811104C0CE010E94DA0D07C01D834B
:101C70000C83B701888199810E942417CE01DF91DE
:101C8000CF911F910F91FF90EF900895DC01119675
:101C90001C921E9213961C921E92129715961C92DD
:101CA0001E92149716961C926115710559F0DB016E
:101CB0000D900020E9F7AD0141505109461B570B2B
:101CC0000C94250E0895CF93DF93EC01FB0186174A
:101CD000970761F0608171816115710529F0448178
:101CE00055810E94250E02C00E94DA0DCE01DF91BF
:101CF000CF910895FC011182108213821282158205
:101D0000148216820C94630ECF93DF93D82FC92FC1
:101D10006115710561F0DB010D900020E9F7AD015F
:101D200041505109461B570B0E94250E02C00E94CC
:101D3000DA0D8D2F9C2FDF91CF9108950F931F9374
:101D4000CF93DF93CDB7DEB762970FB6F894DEBFBF
:101D50000FBECDBF8C01CB01F8011182108213821E
:101D6000128215821482168250E0BE016F5F7F4F8F
:101D70000E946117BE016F5F7F4FC8010E94840EF1
:101D800062960FB6F894DEBF0FBECDBFDF91CF9144
:101D90001F910F910895CF93DF9300D0CDB7DEB799
:101DA000FC01118210821382128215821482168223
:101DB00069831A82BE016F5F7F4F0E94840E0F906D
:101DC0000F90DF91CF910895EF92FF920F931F93A1
:101DD000CF93DF93EC017B010C811D8161157105AF
:101DE00011F480E016C04115510591F0040F151F44
:101DF000B8010E94060E8823A1F3288139818C81C5
:101E00009D81B701820F931F0E9424171D830C83AD
:101E100081E0DF91CF911F910F91FF90EF90089596
:101E2000FB0144815581608171810C94E40ECF9354
:101E3000DF9300D0CDB7DEB769831A8241E050E06E
:101E4000BE016F5F7F4F0E94E40E0F900F90DF91F5
:101E5000CF910895EF92FF920F931F93CF93DF934B
:101E6000CDB7DEB728970FB6F894DEBF0FBECDBF53
:101E70007C01CB014AE050E08E010F5F1F4FB8019B
:101E80000E946117F80101900020E9F7AF0141506D
:101E90005109401B510BB801C7010E94E40E28965E
:101EA0000FB6F894DEBF0FBECDBFDF91CF911F916B
:101EB0000F91FF90EF900895CF93DF93D82FC92F04
:101EC000FB0144815581608171810E94E40E811182
:101ED00004C08D2F9C2F0E94DA0D8D2F9C2FDF9137
:101EE000CF910895CF93DF93D82FC92F6115710536
:101EF00069F0DB010D900020E9F7AD014150510977
:101F0000461B570B0E94E40E811104C08D2F9C2F9D
:101F10000E94DA0D8D2F9C2FDF91CF910895CF93E2
:101F2000DF93DC01ED91FC91EB01A881B981309741
:101F300011F01097C9F4109759F0EB012C813D81F5
:101F4000232B31F02C9130E031952195310914C0CB
:101F5000309781F0DC0114968D919C911597892B17
:101F600049F0208130E008C0BD01CF01DF91CF9161
:101F70000C941B1720E030E0C901DF91CF91089548
:101F8000FC0144815581FB012481358142175307AF
:101F900029F40E948F0F21E0892B09F020E0822F85
:101FA0000895FC0184819581DB0114964D915C912B
:101FB000159784179507A0F02081318121153105EF
:101FC00079F06D917C916115710551F0841B950B31
:101FD000820F931F0E941B179C0181E0232B09F0A5
:101FE00080E008950F931F93CF93DF93EB0141158A
:101FF0005105E9F02097D9F0FC01048115812017E3
:10200000310708F013C041505109021B130B401750
:10201000510708F48A01FC0160817181620F731F0E
:10202000A801CE010E942B17C00FD11F1882DF918B
:10203000CF911F910F910895FC01808191810097AC
:1020400011F00C94E61660E070E080E090E00895F6
:1020500063E082EC93E00E94E71221E04FEB58E04E
:1020600060E082EC93E00E94BD1264E082EC93E0B9
:102070000E94EA1161E080EA93E00E94E71264E0C6
:1020800080EA93E00E94EA1161E08EE793E00E940B
:10209000E71264E08EE793E00E94EA1178940895D5
:1020A0001F920F920FB60F9211242F933F934F93CD
:1020B0005F936F937F938F939F93AF93BF93EF93B0
:1020C000FF93E091DC03F091DD03309709F009956F
:1020D000FF91EF91BF91AF919F918F917F916F9100
:1020E0005F914F913F912F910F900FBE0F901F90D6
:1020F00018951F920F920FB60F9211242F933F93B2
:102100004F935F936F937F938F939F93AF93BF93FF
:10211000EF93FF93E091DE03F091DF03309709F036
:102120000995FF91EF91BF91AF919F918F917F9111
:102130006F915F914F913F912F910F900FBE0F9034
:102140001F9018951F920F920FB60F9211242F9384
:102150003F934F935F936F937F938F939F93AF932F
:10216000BF93EF93FF93E091DA03F091DB03309795
:1021700009F00995FF91EF91BF91AF919F918F91D8
:102180007F916F915F914F913F912F910F900FBE73
:102190000F901F9018951F920F920FB60F92112457
:1021A0002F933F934F935F936F937F938F939F935F
:1021B000AF93BF93EF93FF93E0919803F09199034E
:1021C000309709F00995FF91EF91BF91AF919F91E1
:1021D0008F917F916F915F914F913F912F910F90D0
:1021E0000FBE0F901F9018951F920F920FB60F926F
:1021F00011242F933F934F935F936F937F938F930C
:102200009F93AF93BF93EF93FF93E0919A03F09165
:102210009B03309709F00995FF91EF91BF91AF9122
:102220009F918F917F916F915F914F913F912F91EE
:102230000F900FBE0F901F9018951F920F920FB620
:102240000F9211242F933F934F935F936F937F933C
:102250008F939F93AF93BF93EF93FF93E091960378
:10226000F0919703309709F00995FF91EF91BF9195
:10227000AF919F918F917F916F915F914F913F911E
:102280002F910F900FBE0F901F9018951F920F92D5
:102290000FB60F9211242F933F934F935F936F9339
:1022A0007F938F939F93AF93BF93EF93FF93E091AF
:1022B000BA03F091BB03309709F00995FF91EF91B4
:1022C000BF91AF919F918F917F916F915F914F914E
:1022D0003F912F910F900FBE0F901F9018951F9256
:1022E0000F920FB60F9211242F933F934F935F934A
:1022F0006F937F938F939F93AF93BF93EF93FF93CE
:10230000E091BC03F091BD03309709F00995FF916E
:10231000EF91BF91AF919F918F917F916F915F915D
:102320004F913F912F910F900FBE0F901F901895D6
:102330001F920F920FB60F9211242F933F934F933A
:102340005F936F937F938F939F93AF93BF93EF931D
:10235000FF93E091B803F091B903309709F0099524
:10236000FF91EF91BF91AF919F918F917F916F916D
:102370005F914F913F912F910F900FBE0F901F9043
:1023800018951F920F920FB60F9211242F933F931F
:102390004F935F936F937F938F939F93AF93BF936D
:1023A000EF93FF93E091C003F091C103309709F0E0
:1023B0000995FF91EF91BF91AF919F918F917F917F
:1023C0006F915F914F913F912F910F900FBE0F90A2
:1023D0001F901895DC012C916150223039F4673040
:1023E00068F4E62FF0E0E851FE4F06C0693030F4A3
:1023F000E62FF0E0E151FE4F208101C020E0DC013A
:102400001A96ED91FC911B978081887F822B8083A7
:102410000895CF93DF93EC016883613011F120F0D0
:10242000623009F06CC048C01B821A8286E490E0DA
:102430009D838C838EE690E09F838E8384E490E07E
:102440009987888785E490E09B878A871D861C860C
:1024500087E490E09F878E87198A188A88E490E045
:1024600022C08FE690E09F838E8385E890E09B8377
:102470008A8384E890E09D838C8380E890E099874C
:10248000888781E890E09B878A8789E890E09D872C
:102490008C8788E890E09F878E878BE890E0998B07
:1024A000888B8AE890E09B8B8A8B1D8A1C8A1F8A06
:1024B0001E8A82E0898323C01B821A8282EB90E00D
:1024C0009D838C8380E790E09F838E8380EB90E0F8
:1024D0009987888781EB90E09B878A871D861C8679
:1024E00083EB90E09F878E87198A188A84EB90E0AF
:1024F0009B8B8A8B1D8A1C8A1F8A1E8A698360E0D7
:10250000CE010E94EA11EA81FB81309709F0108226
:10251000EC81FD811082198E188E1B8E1A8E1D8EF5
:102520001C8E1F8E1E8E19A218A2DF91CF910895C6
:1025300051E0411101C050E06530F0F4E62FF0E0C9
:10254000E850FE4F408147FD17C0DC011696ED9123
:10255000FC911797808121E030E0042E01C0220F0A
:102560000A94EAF720952823852F042E01C0880FAE
:102570000A94EAF7282B20830895623099F028F412
:10258000662341F06130C9F409C0633079F06430EA
:10259000A1F410C0FC01518F408F0FC0FC01538F7C
:1025A000428F0BC0FC01558F448F07C0FC01578F31
:1025B000468F03C0FC0151A340A3452B11F440E01A
:1025C00003C0222319F041E00C9498120895DC0115
:1025D0001896ED91FC9119973081262F23703C7F3E
:1025E000232B20831A96ED91FC911B9780816C70B0
:1025F000660F877E682B60830895FC0181816817D0
:1026000040F59081992311F0923011F4813049F016
:10261000662329F0613029F0623031F404C026E0ED
:1026200003C024E001C022E00084F185E02D308168
:1026300083E090E0022E01C0880F0A94EAF78095AB
:1026400083234370022E01C0440F0A94EAF7842BBF
:1026500080830895FC0181816817F8F4611109C035
:10266000A485B585109709F05C930684F785E02D65
:1026700013C0613049F4A089B189109709F05C93C7
:102680000288F389E02D08C0623039F4A489B58945
:102690005C930688F789E02D4083089560E082EC22
:1026A00093E00E94091261E080EA93E00E9409121F
:1026B00062E08EE793E00C94091240D008F481E0C8
:1026C0000895E89409C097FB3EF490958095709525
:1026D00061957F4F8F4F9F4F9923A9F0F92F96E96E
:1026E000BB279395F695879577956795B795F111E3
:1026F000F8CFFAF4BB0F11F460FF1BC06F5F7F4F80
:102700008F4F9F4F16C0882311F096E911C0772391
:1027100021F09EE8872F762F05C0662371F096E89A
:10272000862F70E060E02AF09A95660F771F881F69
:10273000DAF7880F9695879597F90895990F00080D
:10274000550FAA0BE0E8FEEF16161706E807F90783
:10275000C0F012161306E407F50798F0621B730B1E
:10276000840B950B39F40A2661F0232B242B252B9F
:1027700021F408950A2609F4A140A6958FEF811D42
:10278000811D089597F99F6780E870E060E00895E3
:102790009FEF80EC089500240A9416161706180679
:1027A0000906089500240A94121613061406050655
:1027B0000895092E0394000C11F4882352F0BB0FE6
:1027C00040F4BF2B11F460FF04C06F5F7F4F8F4F49
:1027D0009F4F089557FD9058440F551F59F05F3F84
:1027E00071F04795880F97FB991F61F09F3F79F033
:1027F00087950895121613061406551FF2CF4695B5
:10280000F1DF08C0161617061806991FF1CF869536
:102810007105610508940895E894BB27662777271A
:10282000CB0197F908950BD0C4CFB5DF28F0BADFFC
:1028300018F0952309F0A6CFABCF1124EECFCADF55
:10284000A0F3959FD1F3950F50E0551F629FF001C3
:10285000729FBB27F00DB11D639FAA27F00DB11D1C
:10286000AA1F649F6627B00DA11D661F829F2227A5
:10287000B00DA11D621F739FB00DA11D621F839F2C
:10288000A00D611D221F749F3327A00D611D231F02
:10289000849F600D211D822F762F6A2F11249F5750
:1028A00050408AF0E1F088234AF0EE0FFF1FBB1F73
:1028B000661F771F881F91505040A9F79E3F510512
:1028C00070F060CFAACF5F3FECF3983EDCF38695C3
:1028D00077956795B795F795E7959F5FC1F7FE2BBD
:1028E000880F911D9695879597F9089597FB072E68
:1028F00016F4009407D077FD09D00E94C81407FC95
:1029000005D03EF4909581959F4F089570956195FF
:102910007F4F0895A1E21A2EAA1BBB1BFD010DC01B
:10292000AA1FBB1FEE1FFF1FA217B307E407F5077F
:1029300020F0A21BB30BE40BF50B661F771F881F5B
:10294000991F1A9469F760957095809590959B01F1
:10295000AC01BD01CF010895052E97FB16F400943C
:1029600007D057FD0DD00E948A1407FC09D07EF4D1
:1029700090958095709561957F4F8F4F9F4F0895EB
:1029800050954095309521953F4F4F4F5F4F08959B
:10299000AA1BBB1B51E107C0AA1FBB1FA617B70785
:1029A00010F0A61BB70B881F991F5A95A9F78095A1
:1029B0009095BC01CD010895EE0FFF1F0590F49195
:1029C000E02D09940F931F93CF93DF9382309105ED
:1029D00010F482E090E0E091E603F091E70320E05C
:1029E00030E0C0E0D0E023C0408151814817590752
:1029F000A8F04817590761F482819381209719F054
:102A00009B838A832EC09093E7038093E60329C0BB
:102A10002115310529F04217530710F0A90102C012
:102A2000BE01DF0102811381EF019A01F8013097A5
:102A3000D9F62115310509F1281B390B2430310550
:102A400090F412968D919C9113976115710521F068
:102A5000FB019383828304C09093E7038093E60392
:102A6000FD01329644C0FD01E20FF31F8193919363
:102A7000225031092D933C933AC02091E4033091C8
:102A8000E503232B41F4209102013091030130939F
:102A9000E5032093E4032091000130910101211509
:102AA000310541F42DB73EB7409104015091050125
:102AB000241B350BE091E403F091E503E217F307E3
:102AC000A0F42E1B3F0B2817390778F0AC014E5F9E
:102AD0005F4F2417350748F04E0F5F1F5093E503F3
:102AE0004093E4038193919302C0E0E0F0E0CF01D2
:102AF000DF91CF911F910F910895EF92FF920F9365
:102B00001F93CF93DF93009709F48FC0DC011297D6
:102B100013961C921E921297E090E603F090E70342
:102B2000E114F10489F42D913C911197280F391F7C
:102B30008091E4039091E5038217930789F5B093A0
:102B4000E503A093E40371C0E70120E030E001C099
:102B5000EA01CA17DB0738F44A815B819E014115FF
:102B60005105B1F722C0BC0162507109FB01D3834A
:102B7000C28300811181AC01400F511F4C175D07CA
:102B800061F448815981400F511F4E5F5F4F51835F
:102B900040834A815B81538342832115310529F4A7
:102BA000B093E703A093E60340C0F901B383A28387
:102BB000E90169917991C60FD71FAC17BD0779F468
:102BC000DC015E914E91460F571F4E5F5F4F518360
:102BD000408312968D919C91139793838283A0E0FA
:102BE000B0E002C0D7017C01F70182819381009798
:102BF000C9F7C701029620813181820F931F20916E
:102C0000E4033091E5032817390779F4109729F484
:102C10001092E7031092E60304C013961C921E92D2
:102C20001297F092E503E092E403CDB7DEB7E6E059
:102C30000C94E517A0E0B0E0E0E2F6E10C94C317D5
:102C4000EC01009729F4CB010E94E214EC01B8C01A
:102C5000DC01A60FB71FFC013297AE17BF0718F4AF
:102C6000C0E0D0E0ADC00081118106171707B0F0B9
:102C70000530110508F4A4C0C8010497861797070A
:102C800008F49EC002501109061B170B0D931D93EB
:102C900071836083CD010E947D1592C07B01E01A93
:102CA000F10A5C01A00EB11EE091E603F091E7038A
:102CB000812C912C80E090E04CC0EA15FB05F1F5E9
:102CC000408151816A0122E0C20ED11CCE14DF0482
:102CD000A8F19A012E193F097901690132E0C30E6A
:102CE000D11C2EEFA22EBB24BA94AC0EBD1E25E043
:102CF000C216D10478F04281538113965C934E93AF
:102D000012971196FC92EE92F501718360833A2F2F
:102D10002B2F09C00E5F1F4F040F151FD5010D93F8
:102D20001C9332812381009721F0FC01328323839D
:102D300047C03093E6032093E70342C0808191812E
:102D40008816990608F44C0152814381CF01E52F82
:102D5000F42F309709F0B1CF8091E4039091E5030F
:102D60008A159B05F1F486169706D8F48091000128
:102D700090910101009741F48DB79EB72091040115
:102D800030910501821B930BA817B90708F068CF93
:102D9000B093E503A093E403FE013297718360834F
:102DA0000FC0CB010E94E2147C01009709F458CFB8
:102DB000A801BE010E941217CE010E947D15E701F5
:102DC000CE01CDB7DEB7ECE00C94DF171F93FC010A
:102DD00099278827BC01E89411911032E9F3193042
:102DE00010F01E30C8F31B3251F01D3249F46894C4
:102DF00006C00E948217610F711D811D911D1191E6
:102E000010531A30B0F33EF490958095709561950B
:102E10007F4F8F4F9F4F1F9108954EEF51E00E94BB
:102E20003A170895FB01DC0102C001900D92415058
:102E30005040D8F70895FB01DC018D910190801975
:102E40000110D9F3990B0895FB01DC0101900D925B
:102E50000020E1F70895FB01DC014150504048F0AB
:102E600001900D920020C9F701C01D9241505040C1
:102E7000E0F70895FA01A191B081009719F4109735
:102E8000E1F0CD01DC01CD010D90002011F4C00175
:102E900013C0FB012191222319F02015D9F7F3CF9C
:102EA000FB012191201519F41E92119606C02223D0
:102EB000C1F70D900020A1F7D001FA01A193B083D2
:102EC0000895FB019F01E8944230C4F04532B4F408
:102ED0004A3029F497FB1EF4909581959F4F642FFB
:102EE00077270E94C814805D8A330CF0895D819336
:102EF000CB010097A1F716F45DE251931082C9014E
:102F00000C94AD17592F482F372F262F660F771F98
:102F1000881F991F660F771F881F991F620F731FE5
:102F2000841F951F660F771F881F991F0895F999B1
:102F3000FECF92BD81BDF89A992780B50895262FBE
:102F4000F999FECF1FBA92BD81BD20BD0FB6F8948E
:102F5000FA9AF99A0FBE01960895DC01FC01672FD9
:102F600071917723E1F7329704C07C916D93708360
:102F70006291AE17BF07C8F308952F923F924F9208
:102F80005F926F927F928F929F92AF92BF92CF92F9
:102F9000DF92EF92FF920F931F93CF93DF93CDB702
:102FA000DEB7CA1BDB0B0FB6F894DEBF0FBECDBF7A
:102FB00009942A88398848885F846E847D848C844B
:102FC0009B84AA84B984C884DF80EE80FD800C8154
:102FD0001B81AA81B981CE0FD11D0FB6F894DEBF37
:102FE0000FBECDBFED01089510E0C2E8D0E004C0EF
:102FF000FE010E94DE142296C438D107C9F7F89466
:02300000FFCF00
:103002000000E803200005040309080706313233F3
:103012003435363738392A30230E000F0001017B50
:10302200226964223A002C22616C657274223A226F
:1030320000227D002A003B004845414C5448434849
:1030420045434B004144445F50415353574F524410
:10305200004348414E47455F50415353574F5244F6
:103062000044454C4554455F50415353574F5244D9
:103072000044454C4554455F414C4C5F50415353CD
:10308200574F524453006D6F74696F6E20646574BC
:10309200656374656400737573706963696F7573D2
:1030A20020617474656D7074006C6F772062617456
:1030B20074657279006C6F6E67206F70656E696EF1
:1030C2006700230000000000FD09440DAF09B409A8
:1030D200DA09C80900000000D509550A5B0A000098
:1030E2000000D009490A4F0A01020304050607013C
:0E30F2000200030004050607000102030500AA
:00000001FF
