:100000000C9442000C946A000C946A000C946A00F0
:100010000C946A000C946A000C946A000C946A00B8
:100020000C946A000C9467100C9490100C94B91006
:100030000C945D110C94E2100C940B110C9434117F
:100040000C94EC0F0C9415100C943E100C946A0058
:100050000C94740C0C94270A0C946A000C946A009B
:100060000C946A000C946A000C946A000C946A0068
:100070000C94490C0C94750A0C946A00AF049F0C04
:10008000EA12FC0411241FBECFEFD0E1DEBFCDBFCA
:1000900011E0A0E0B1E0EAE3FFE202C005900D92BA
:1000A000A23FB107D9F713E0A2EFB1E001C01D9262
:1000B000A43DB107E1F710E0C2E8D0E004C0229708
:1000C000FE010E947A14CC37D107C9F70E946E094D
:1000D0000C9490170C9400000F931F93CF93DF9311
:1000E000EB018A0142E0BC018DE00E94A90C42E0D4
:1000F000BE018CE00E94A90C42E0B8018AE0DF91C9
:10010000CF911F910F910C94A90C40E050E060E05A
:1001100070E08FEF90E00E946C00299A089581E0D2
:1001200080932E0240E050E06FEF70E080E090E0BE
:100130000C946C0010922E024FEF50E060E070E0E3
:1001400080E090E00C946C00882311F0299A0895C7
:100150002998089581110C9485004FEF50E060E0DC
:1001600070E080E090E00E946C0080E00C94A400BD
:100170000F931F93CF93DF93CDB7DEB72E970FB6B4
:10018000F894DEBF0FBECDBF8C016FE171E0CE01F0
:1001900008960E94E20D61E070E0CE0108960E9490
:1001A000C60E66E271E0CE0101960E94E20DB80132
:1001B000CE0101960E94F80E61E371E00E940E0FDD
:1001C000BC01CE0108960E94AC0ECE0101960E94A1
:1001D000710DBE01685F7F4F8EE093E00E945D0D60
:1001E000CE0108960E94710D2E960FB6F894DEBFD0
:1001F0000FBECDBFDF91CF911F910F9108958F92C8
:100200009F92AF92BF92FF920F931F93CF93DF9372
:10021000CDB7DEB727970FB6F894DEBF0FBECDBFC0
:100220008C010E94BA08609321027093220280938D
:100230002302909324020E94BA0860932A027093CA
:100240002B0280932C0290932D02FF24F3947AC00A
:100250000E94BA088090210290902202A09023026E
:10026000B0902402681979098A099B09603375479F
:1002700081059105D0F00E94850080912F028111A7
:1002800066C00E94BA0880902A0290902B02A0902B
:100290002C02B0902D02681979098A099B096838E7
:1002A00073418105910508F052C00130110561F4D8
:1002B000339948C0F0922F020E949A0080E00E9479
:1002C000AA00109229023AC001151105D9F58CEF48
:1002D00091E00E94D806882381F0682FCE01019614
:1002E0000E94670EBE016F5F7F4F85EF91E00E9415
:1002F000AC0ECE0101960E94710D64E371E0CE0157
:1003000001960E94E20DBE016F5F7F4F85EF91E085
:100310000E946D0FB82ECE0101960E94710DBB2078
:1003200089F080E00E94AA000E949A00F0922F02B9
:1003300060E371E085EF91E00E94200E10921B02B5
:1003400010921A0280912E02811182CF1BC010924E
:100350002F020E94BA0860932A0270932B028093A6
:100360002C0290932D0267E772E0CE0101960E9465
:10037000160ECE0101960E94B800CE0101960E9491
:10038000710D93CF27960FB6F894DEBF0FBECDBF89
:10039000DF91CF911F910F91FF90BF90AF909F90F1
:1003A0008F9008950F931F93CF93DF93CDB7DEB750
:1003B00027970FB6F894DEBF0FBECDBF2AE939E903
:1003C00049E95FE360913202709133028091340217
:1003D000909135020E94F912181624F081E0809362
:1003E000310205C01092310281E080933002809189
:1003F00031028823C9F0289A0E94BA080091250288
:10040000109126022091270230912802601B710B67
:10041000820B930B603375478105910538F4809109
:100420003002811103C026C0289824C010923002E7
:100430000E94BA08609325027093260280932702D7
:100440009093280265E872E0CE0101960E94160E94
:10045000CE0101960E94B800CE0101960E94710D56
:10046000299A60ED77E080E090E00E94CC0880E07F
:100470000E94A40027960FB6F894DEBF0FBECDBF32
:10048000DF91CF911F910F9108955F926F927F92AC
:100490008F929F92AF92BF92CF92DF92EF92FF9294
:1004A0000F931F93CF93DF93CDB7DEB727970FB688
:1004B000F894DEBF0FBECDBF3C0193E1A92EB12C55
:1004C000E12CF12C03E010E0B70188EA92E00E94F1
:1004D000BB06C82ED12C2BC0C0FC05C00E5F1F4F21
:1004E000D594C79424C0B80188EA92E00E94BB0664
:1004F000582EB8016F5F7F4F88EA92E00E94BB06DA
:10050000982E812CB401650D711D4AE0CE01019633
:100510000E943A0EB301CE0101960E945C0F582E44
:10052000CE0101960E94710D5520C1F211C0C11477
:10053000D10491F68FEFE81AF80A850180E1A80E40
:10054000B11C83E0E816F10409F0BECF80E001C0E1
:1005500081E027960FB6F894DEBF0FBECDBFDF91C6
:10056000CF911F910F91FF90EF90DF90CF90BF90B0
:10057000AF909F908F907F906F905F900895CF92F3
:10058000DF92EF92FF920F931F93CF93DF93CDB73C
:10059000DEB76C01CB01EDB6FEB6FB01448155819F
:1005A0004F5F5F4F2DB73EB7241B350B0FB6F89446
:1005B0003EBF0FBE2DBF0DB71EB70F5F1F4F20E010
:1005C00030E0B8010E948E0F66E371E0C8010E941E
:1005D000A91686010CC0BC01C8010E94200E66E36A
:1005E00071E080E090E00E94A916095F1F4F00971C
:1005F00091F70FB6F894FEBE0FBEEDBEDF91CF911E
:100600001F910F91FF90EF90DF90CF9008950F937F
:100610001F93CF93DF938C01EB0160E071E00E94A8
:100620001214BE01660F771F6D5F7F4F482F88EA57
:1006300092E00E94BE06A80117FF02C041505F4F22
:10064000452F550F550BBE016E5F7F4F660F771F0D
:1006500088EA92E00E94BE068E01D7FF02C0095FC1
:100660001F4F23E0159507952A95E1F71127B8014B
:1006700088EA92E00E94BB06482FCE0168E070E055
:100680000E94121421E030E001C0220F8A95EAF79F
:10069000422BB80188EA92E0DF91CF911F910F9130
:1006A0000C94BE06EF920F93E12C01E028E040E8A5
:1006B00055E260E070E08EE093E00E94470B61E05D
:1006C00070E082ED94E00E94070360E371E085EF43
:1006D00091E00E94200E10922E0281E08093300261
:1006E00080932F02109220021092F4011092310296
:1006F00028E040E855E260E070E08EE093E00E9480
:10070000470B10922902209A08983D9A3C9A3A9AEF
:100710003B984FEF50E060E070E080E090E00E9496
:100720006C0061E080911B010E94EE0860E0809106
:1007300019010E94EE08219A28E040E855E260E0A5
:1007400070E08EE093E00E94470B0F91EF900895C8
:100750000F931F93CF93DF938C01EB0160E071E067
:100760000E941214BE01660F771F6D5F7F4F482FE6
:1007700088EA92E00E94BE06A80117FF02C041501D
:100780005F4F452F550F550BBE016E5F7F4F660FB4
:10079000771F88EA92E0DF91CF911F910F910C941F
:1007A000BE060F931F93CF93DF938C01EC0197FD4F
:1007B000279683E0D595C7958A95E1F7DD27BE0199
:1007C00088EA92E00E94BB06482FC80168E070E00A
:1007D0000E94121421E030E001C0220F8A95EAF74E
:1007E0004227BE0188EA92E0DF91CF911F910F91DD
:1007F0000C94BE0640E060E070E088EA92E00E945F
:10080000BE0640E061E070E088EA92E00E94BE0629
:1008100040E062E070E088EA92E00C94BE06CF927D
:10082000DF92EF92FF92CF93DF93CDB7DEB76C9755
:100830000FB6F894DEBF0FBECDBF80916F02882344
:1008400009F480C060E371E0CE0101960E94E20DE0
:1008500060E371E0CE0108960E94E20D60E371E072
:10086000CE010F960E94E20D68E672E0CE01469638
:100870000E94160EBE016A5E7F4FCE0101960E9455
:10088000BF02CE0146960E94710D6CE872E0CE0167
:1008900001960E945C0F882381F0CE0108960E9489
:1008A000B80F6B017C01CE010F960E94B80FDC01DE
:1008B000CB01B6010E94070331C063E972E0CE01AB
:1008C00001960E945C0F882381F0CE0108960E9459
:1008D000B80F6B017C01CE010F960E94B80FDC01AE
:1008E000CB01B6010E94A80319C06AE972E0CE01EB
:1008F00001960E945C0F882341F0CE0108960E9469
:10090000B80FCB010E94D10309C061EA72E0CE01A9
:1009100001960E945C0F81110E94FA0360E371E06E
:1009200088E692E00E94200E10926F02CE010F9690
:100930000E94710DCE0108960E94710DCE010196A4
:100940000E94710D6C960FB6F894DEBF0FBECDBF3E
:10095000DF91CF91FF90EF90DF90CF900895EF92CD
:100960000F9360E371E088E692E00E94E20D68E395
:1009700071E08CE892E00E94E20D65E471E083E9A9
:1009800092E00E94E20D65E571E08AE992E00E9442
:10099000E20D65E671E081EA92E00E94E20D6AE70D
:1009A00071E080E792E00E94E20D6AE871E08EE774
:1009B00092E00E94E20D6DE971E085E892E00E940C
:1009C000E20D69EA71E087E792E00E94E20D93E0B0
:1009D000E92E04E026E031E049E051E06DE071E00D
:1009E0008CEF91E00E94220860E371E085EF91E0D6
:1009F0000F91EF900C94E20D85EF91E00E94710D44
:100A000087E792E00E94710D85E892E00E94710DE7
:100A10008EE792E00E94710D80E792E00E94710DD6
:100A200081EA92E00E94710D8AE992E00E94710DC4
:100A300083E992E00E94710D8CE892E00E94710DB2
:100A400088E692E00C94710DCF93DF93D1E018C04B
:100A50008EE093E00E94A009C82F682F88E692E0FC
:100A60000E94B30ECA3061F420E030E042E350E06F
:100A700066E372E088E692E00E948E0FD0936F02E8
:100A80008EE093E00E947509892B11F7DF91CF91D9
:100A900008950F931F93CF93DF93CDB7DEB72797BA
:100AA0000FB6F894DEBF0FBECDBF88E10E94550897
:100AB000BC01882777FD8095982F0E94FF122DECAE
:100AC0003CEC4CEA50E40E94AF1320E030E040E8F8
:100AD0005AE30E94AF136093320270933302809303
:100AE0003402909335020E94D201809119010E9434
:100AF0001C09082F10E010931D0200931C02013006
:100B00001105F1F461E080911B010E944009809180
:100B10001E0290911F02892B11F560E772E0CE0151
:100B200001960E94160ECE0101960E94B800CE01D9
:100B300001960E94710D10931F0200931E020FC0B8
:100B400060E080911B010E94400980911E029091FB
:100B50001F02019721F410921F0210921E02809131
:100B60002902811118C0339B47C00E94BA086093C4
:100B7000210270932202809323029093240281E049
:100B8000809329020E948F0081E090E00E94FF0084
:100B90001092200231C0339B24C00E94BA080091F9
:100BA0002102109122022091230230912402601B25
:100BB000710B820B930B683B7B4081059105E0F044
:100BC0000E94850067E772E0CE0101960E94160E32
:100BD000CE0101960E94B800CE0101960E94710DCF
:100BE0000BC00E949A0080E00E94AA001092290285
:100BF00010921B0210921A028091F401811107C019
:100C00008CEF91E00E94D806882311F101C0FFCF3C
:100C1000682FCE0101960E94670EBE016F5F7F4F65
:100C200085EF91E00E94AC0ECE0101960E94710DFD
:100C300040E050E06FEF70E080E090E00E946C00D8
:100C40004FEF50E060E070E080E090E00E946C00C8
:100C500066EB71E0CE0101960E94E20DBE016F5F6E
:100C60007F4F85EF91E00E946D0F882339F011E0EE
:100C70008091F9019091FA01059708F010E0CE01FA
:100C800001960E94710D112331F060E371E085EF50
:100C900091E00E94200E8091F9019091FA01049751
:100CA00081F565EF71E0CE0101960E94160ECE012E
:100CB00001960E944502182FCE0101960E94710DE7
:100CC000112349F00E948F0080E090E00E94FF0015
:100CD0001092200216C0809120028F5F8093200224
:100CE00060E371E085EF91E00E94200E0E94850094
:100CF00068EE73E080E090E00E94CC0880E00E9403
:100D0000AA0080912002833008F160E371E085EF52
:100D100091E00E94200E109220026EE772E0CE0158
:100D200001960E94160ECE0101960E94B800CE01D7
:100D300001960E94710D0E94850068EB7BE080E0C7
:100D400090E00E94CC0880E00E94AA000E94240546
:100D50000E940F0464E670E080E090E00E94CC08FE
:100D600027960FB6F894DEBF0FBECDBFDF91CF91AF
:100D70001F910F910895CB010C943317CB01642F71
:100D80000C943B17DC0118968D919C91199786174E
:100D9000970769F019967C936E9318975C96ED917E
:100DA000FC915D97309719F01A968C9109940895EB
:100DB0004F925F926F927F92AF92BF92CF92DF92EB
:100DC000EF92FF920F931F93CF93DF93EC01A12C2F
:100DD000A8C00A2D10E0EC81FD81E00FF11F60E05A
:100DE00080810E944009B12C68018EC0EB2CF12C4F
:100DF0008F81E881F981EC0DFD1DB89EE00DF11D9C
:100E000011249A85808198133CC00E94BA084E84B0
:100E10005F846888798864197509860997094A8CFE
:100E20005B8C612C712C641575058605970550F057
:100E3000EA81FB81EE0DFF1D80810E941C09882341
:100E400009F498C00E94BA084E845F846888798843
:100E50006419750986099709488C598C612C712C85
:100E6000641575058605970508F493C0EA81FB8132
:100E7000EB0DF11D80810E941C09813009F089C0B1
:100E80007FC00E94BA084E845F846888798864199C
:100E9000750986099709488C598C612C712C641549
:100EA00075058605970578F1EA81FB81EE0DFF1D3A
:100EB00080810E941C09811126C0EC81FD81E00F18
:100EC000F11F61E080810E9440092F812E9DC001A9
:100ED0002F9D900D1124E881F981EC0DFD1DE80F87
:100EE000F91FF0808E859F85A889B9898A8B9B8B95
:100EF000AC8BBD8B0E94BA086E877F87888B998BDD
:100F0000F11015C005C0B3948E81B81608F46ECFE9
:100F1000EC81FD81E00FF11F61E080810E944009BA
:100F2000A3948F81A81608F454CF80E040C08B852D
:100F3000F81239C00E94BA080A891B892C893D8998
:100F4000601B710B820B930B0E891F8920E030E030
:100F5000061717072807390710F525C081E090E02C
:100F60009D878C87FA8661E070E0CE010E94C20600
:100F70008A851DC063E070E0CE010E94C20662CF88
:100F800062E070E0CE010E94C2068A858B871A86D5
:100F9000BFCF88859985039709F0B5CFB9CF8C85E8
:100FA0009D850196DDCF8A85F812D8CFBECFDF911F
:100FB000CF911F910F91FF90EF90DF90CF90BF9056
:100FC000AF907F906F905F904F900895FF920F9336
:100FD0001F93CF93DF93EC01F12C13C00F2D10E082
:100FE000EA81FB81E00FF11F60E080810E94EE0842
:100FF000EA81FB81E00FF11F61E080810E944009DE
:10100000F3948E81F81650F3F12C13C00F2D10E0DD
:10101000EC81FD81E00FF11F61E080810E94EE080C
:10102000EC81FD81E00FF11F61E080810E944009A9
:10103000F3948F81F81650F3DF91CF911F910F91A8
:10104000FF900895EF920F93FC0153834283358301
:1010500024830683E7827183608316861786108A4D
:10106000118A128A138A148A158A8CE291E0978B6E
:10107000868B82E390E0918F808F88EE93E0938F50
:10108000828F158E148E1286138611861086158611
:101090001486CF010F91EF900C94E60780E48093C3
:1010A0007C0087E880937A000895CF93DF931F92A6
:1010B000CDB7DEB790911D01913031F489830E9444
:1010C0004E0810921D018981877020911E0140E415
:1010D000249F90011124822B80937C0080917A00C0
:1010E000806480937A0080917A0086FDFCCF209105
:1010F000780030917900932F80E0FC01E22B9F0172
:10110000C9010F90DF91CF9108958091AA0290912B
:10111000AB02A091AC02B091AD023091A902232F95
:101120002D5F2D3720F40196A11DB11D05C0232F81
:101130002A570296A11DB11D2093A9028093AA02ED
:101140009093AB02A093AC02B093AD028091AE023B
:101150009091AF02A091B002B091B1020196A11D91
:10116000B11D8093AE029093AF02A093B002B093F2
:10117000B10208950F931F938FB7F8940091AA02BC
:101180001091AB022091AC023091AD028FBFB8013B
:10119000C9011F910F9108958F929F92AF92BF92B4
:1011A000CF92DF92EF92FF926B017C010E94BA080E
:1011B0004B015C010E94BA08681979098A099B09E8
:1011C0006C157D058E059F05A8F3FF90EF90DF90CD
:1011D000CF90BF90AF909F908F900895982F977069
:1011E00021E030E0092E01C0220F0A94EAF786952B
:1011F0008695869581F0813089F0823091F0833038
:10120000D1F412C080812095822302C08081822B7C
:1012100080839FBF0895EAE2F0E008C0E7E2F0E0D3
:1012200005C0E4E2F0E002C0E1E2F0E09FB7F8942C
:10123000662341F3EBCF0895982F977021E030E0BB
:1012400001C0220F9A95EAF786958695869539F022
:10125000813041F0823049F0833051F00895E9E265
:10126000F0E008C0E6E2F0E005C0E3E2F0E002C032
:10127000E0E2F0E09081922381E009F480E00895BB
:10128000982F977021E030E0092E01C0220F0A94B8
:10129000EAF786958695869581F0813089F08230CF
:1012A00091F08330D1F412C080812095822302C056
:1012B0008081822B80839FBF0895EBE2F0E008C01D
:1012C000E8E2F0E005C0E5E2F0E002C0E2E2F0E0D2
:1012D0009FB7F894662341F3EBCF08950E94C40FA3
:1012E0000E9452030E944905FDCFFC0120893189EB
:1012F000C9010895DC0150962D913C915197232B03
:1013000049F05496ED91FC915597E80FF91F268905
:1013100030E002C02FEF3FEFC9010895FC01118AB0
:10132000108A158A148A138A128A0895FC0124816E
:101330003581C9010895FC0124813581C9010895D1
:10134000FC0180899189892BD1F03FB7F89480897D
:1013500091890197918B808B84899589DF01A80FF2
:10136000B91F56962C910196803291051CF4958BED
:10137000848B02C0158A148A3FBF30E002C02FEF71
:101380003FEFC9010895EF92FF921F93CF93DF9330
:101390001F92CDB7DEB77C01D701DA968D919C9173
:1013A000DB974097C8F71FB7F894D696ED91FC915C
:1013B000D7970190F081E02DC701C6966983099502
:1013C00069814097C8F4F70182AD93AD019693AF60
:1013D00082AF84AD95ADE80FF91FE05CFF4F6083ED
:1013E0000196D701DD969C938E93DC97409724F06D
:1013F000DD961C921E92DC97F701EA5AFF4F01908E
:10140000F081E02D8081806280831FBF81E090E0C9
:101410000F90DF91CF911F91FF90EF900895665F3D
:101420007F4F680F791FCB010895665F7F4F680F6C
:10143000791FCB010895665F7F4F680F791FCB013D
:101440000895665F7F4F680F791FCB0108951F9243
:101450000F920FB60F9211242F938F939F93AF93F8
:10146000BF93EF93FF938091480390914903892B99
:1014700021F1E0916803F091690380914803909114
:1014800049030197909349038093480380914C034B
:1014900090914D03DC01AC5BBC4F1A962C910196E8
:1014A000803191052CF490934D0380934C0304C03C
:1014B00010924D0310924C03208380914803909129
:1014C0004903892B31F4E0916403F091650388E9C5
:1014D0008083FF91EF91BF91AF919F918F912F9159
:1014E0000F900FBE0F901F9018951F920F920FB67E
:1014F0000F9211242F938F939F93AF93BF93EF93EA
:10150000FF938091EC029091ED02892B21F1E09103
:101510000C03F0910D038091EC029091ED02019784
:101520009093ED028093EC028091F0029091F10291
:10153000DC01A851BD4F1A962C910196803191057E
:101540002CF49093F1028093F00204C01092F10207
:101550001092F00220838091EC029091ED02892B91
:1015600031F4E0910803F091090388E98083FF9149
:10157000EF91BF91AF919F918F912F910F900FBEDF
:101580000F901F901895FC01262F1382128248EEAF
:1015900053E060E070E044835583668377838CEB8F
:1015A00091E0918380838CEC91E09587848780E241
:1015B00090E097878687118A108A158A148A138A81
:1015C000128A86ED91E097AB86AB80E190E091AF17
:1015D00080AF13AE12AE17AE16AE15AE14AE222308
:1015E00021F0213009F052C028C0DF01A05BBF4FBD
:1015F00085EC90E08D939C93DF01AE5ABF4F84EC55
:1016000090E08D939C93DF01AC5ABF4F80EC90E04B
:101610008D939C93DF01AA5ABF4F81EC90E08D938C
:101620009C93DF01A85ABF4F82EC90E08D939C936E
:10163000E65AFF4F86EC90E027C0DF01A05BBF4F6A
:101640008DEC90E08D939C93DF01AE5ABF4F8CECF4
:1016500090E08D939C93DF01AC5ABF4F88EC90E0F3
:101660008D939C93DF01AA5ABF4F89EC90E08D9334
:101670009C93DF01A85ABF4F8AEC90E08D939C9316
:10168000E65AFF4F8EEC90E09183808308953F925D
:101690004F925F926F927F928F929F92AF92BF9282
:1016A000CF92DF92EF92FF920F931F93CF93DF932E
:1016B000EC014A015B01122F3E2C60E072E18AE7E7
:1016C00090E0A50194010E94261469017A0184E04A
:1016D000C80ED11CE11CF11C83E0F694E794D7946A
:1016E000C7948A95D1F760E074E284EF90E0A50199
:1016F00094010E94261429013A0194E0490E511CDC
:10170000611C711C93E076946794579447949A9562
:10171000D1F7A30192014427552760E874E88EE1D0
:1017200090E00E9448145901A818B908B7FE03C0F8
:10173000B194A194B108A70196014427552760E40C
:1017400072E48FE090E00E9448142819390937FFAD
:1017500003C0319521953109FE01EC5AFF4F0190EC
:10176000F081E02DA216B3063CF482E08083620192
:1017700081E0C81AD10804C0108291E0C91AD108CA
:101780001630C1F018F4153099F405C0173029F05F
:10179000193071F404C080E00EC084E00CC0FE017A
:1017A000EA5AFF4F0190F081E02D808184608083B0
:1017B00086E001C082E0023009F4886091E03916C9
:1017C00021F092E0391204C002C0806301C080623F
:1017D000FE01E85AFF4F0190F081E02D8083FE0169
:1017E000E05BFF4F0190F081E02DD082FE01EE5AC8
:1017F000FF4F0190F081E02DC082CA5ADF4FE8818F
:10180000F98188E98083DF91CF911F910F91FF903B
:10181000EF90DF90CF90BF90AF909F908F907F9090
:101820006F905F904F903F9008950F931F93CF93C9
:10183000DF931F92CDB7DEB78C01DC01ED91FC91F7
:101840000190F081E02D6983099569818097D0F43A
:10185000F80184819581019695838483868197819F
:10186000E80FF91F628701968032910534F4D801A0
:1018700017969C938E93169703C0F80117821682D1
:1018800081E001C080E00F90DF91CF911F910F9117
:1018900008951F920F920FB60F9211242F933F932A
:1018A0004F935F936F937F938F939F93AF93BF9368
:1018B000EF93FF93E0910C03F0910D0360818EEBA9
:1018C00092E00E94150CFF91EF91BF91AF919F9113
:1018D0008F917F916F915F914F913F912F910F90D9
:1018E0000FBE0F901F9018951F920F920FB60F9278
:1018F00011242F933F934F935F936F937F938F9315
:101900009F93AF93BF93EF93FF93E0916803F091A0
:10191000690360818AE193E00E94150CFF91EF91C9
:10192000BF91AF919F918F917F916F915F914F91F7
:101930003F912F910F900FBE0F901F90189560E070
:101940008EE093E00E94C30A61E082EB92E00C9487
:10195000C30A1F93CF93DF93182FEB01209721F435
:1019600060E00E94400940E0143079F1153029F11F
:101970001630E9F1173099F1133169F0143109F09B
:1019800044C011C060E001C061E0812FDF91CF91C0
:101990001F910C94400960E08EEA93E00E94991236
:1019A000AE0160E007C061E08EEA93E00E94991208
:1019B000AE0161E08EEA93E023C060E08CE893E042
:1019C0000E949912AE0160E007C061E08CE893E0EC
:1019D0000E949912AE0161E08CE893E011C060E0D2
:1019E0008AE693E00E949912AE0160E007C061E0D0
:1019F0008AE693E00E949912AE0161E08AE693E0E4
:101A0000DF91CF911F910C94C612C038D10508F414
:101A1000B9CFBACFCF92DF92EF92FF920F931F937D
:101A2000CF93DF936C01EB017A01E60EF71E00E025
:101A300010E00BC06991D601ED91FC910190F0810D
:101A4000E02DC6010995080F191FCE15DF0591F786
:101A5000C801DF91CF911F910F91FF90EF90DF9020
:101A6000CF900895DC01ED91FC910190F081E02D83
:101A70000994DC01ED91FC91DB0114964D915C9190
:101A800015976D917C910280F381E02D09940F935D
:101A90001F93CF93DF93EC016DE00E94320D8C0118
:101AA0006AE0CE010E94320D9C01200F311FC90156
:101AB000DF91CF911F910F9108950F931F93CF93B3
:101AC000DF93EC010E94390D8C01CE010E94470D7D
:101AD0009C01200F311FC901DF91CF911F910F9100
:101AE0000895FC01808191810C941915CF93DF93A7
:101AF000EC0188819981009711F00E9419151982D3
:101B000018821D821C821B821A82DF91CF91089558
:101B10000F931F93CF93DF93EC018B016F5F7F4F88
:101B2000888199810E94B615009731F09983888346
:101B30001B830A8381E001C080E0DF91CF911F9178
:101B40000F910895CF93DF93EC0188819981892BC0
:101B500031F08A819B818617970708F00CC0CE016F
:101B60000E94880D882349F08C819D81892B19F46E
:101B7000E881F981108281E001C080E0DF91CF919E
:101B80000895EF92FF920F931F93CF93DF93EC0191
:101B90007B018A01BA010E94A20D811104C0CE010D
:101BA0000E94760D07C01D830C83B701888199813F
:101BB0000E94C016CE01DF91CF911F910F91FF902F
:101BC000EF900895DC0111961C921E9213961C92C0
:101BD0001E92129715961C921E92149716961C929E
:101BE0006115710559F0DB010D900020E9F7AD0199
:101BF00041505109461B570B0C94C10D0895CF93CA
:101C0000DF93EC01FB018617970761F0608171811A
:101C10006115710529F0448155810E94C10D02C0F2
:101C20000E94760DCE01DF91CF910895FC011182C3
:101C30001082138212821582148216820C94FF0D78
:101C4000CF93DF93D82FC92F6115710561F0DB01A8
:101C50000D900020E9F7AD0141505109461B570B8B
:101C60000E94C10D02C00E94760D8D2F9C2FDF9126
:101C7000CF9108950F931F93CF93DF93CDB7DEB726
:101C800062970FB6F894DEBF0FBECDBF8C01CB01BB
:101C9000F801118210821382128215821482168238
:101CA00050E0BE016F5F7F4F0E94FD16BE016F5F67
:101CB0007F4FC8010E94200E62960FB6F894DEBFD7
:101CC0000FBECDBFDF91CF911F910F910895CF939C
:101CD000DF9300D0CDB7DEB7FC01118210821382F2
:101CE000128215821482168269831A82BE016F5F86
:101CF0007F4F0E94200E0F900F90DF91CF9108959B
:101D0000EF92FF920F931F93CF93DF93EC017B0130
:101D10000C811D816115710511F480E016C041151B
:101D2000510591F0040F151FB8010E94A20D8823E0
:101D3000A1F3288139818C819D81B701820F931F86
:101D40000E94C0161D830C8381E0DF91CF911F910B
:101D50000F91FF90EF900895FB01448155816081C0
:101D600071810C94800ECF93DF9300D0CDB7DEB796
:101D700069831A8241E050E0BE016F5F7F4F0E948D
:101D8000800E0F900F90DF91CF910895EF92FF9208
:101D90000F931F93CF93DF93CDB7DEB728970FB67E
:101DA000F894DEBF0FBECDBF7C01CB014AE050E00E
:101DB0008E010F5F1F4FB8010E94FD16F8010190C0
:101DC0000020E9F7AF0141505109401B510BB80108
:101DD000C7010E94800E28960FB6F894DEBF0FBE92
:101DE000CDBFDF91CF911F910F91FF90EF9008959C
:101DF000CF93DF93D82FC92FFB0144815581608198
:101E000071810E94800E811104C08D2F9C2F0E9431
:101E1000760D8D2F9C2FDF91CF910895CF93DF9377
:101E2000D82FC92F6115710569F0DB010D900020D5
:101E3000E9F7AD0141505109461B570B0E94800E36
:101E4000811104C08D2F9C2F0E94760D8D2F9C2F09
:101E5000DF91CF910895CF93DF93DC01ED91FC9159
:101E6000EB01A881B981309711F01097C9F4109750
:101E700059F0EB012C813D81232B31F02C9130E086
:101E800031952195310914C0309781F0DC01149609
:101E90008D919C911597892B49F0208130E008C0E5
:101EA000BD01CF01DF91CF910C94B71620E030E057
:101EB000C901DF91CF910895FC0144815581FB0157
:101EC000248135814217530729F40E942B0F21E00A
:101ED000892B09F020E0822F0895FC0184819581EF
:101EE000DB0114964D915C91159784179507A0F02E
:101EF000208131812115310579F06D917C91611539
:101F0000710551F0841B950B820F931F0E94B71629
:101F10009C0181E0232B09F080E008950F931F932B
:101F2000CF93DF93EB0141155105E9F02097D9F0EC
:101F3000FC01048115812017310708F013C04150BE
:101F40005109021B130B4017510708F48A01FC01C9
:101F500060817181620F731FA801CE010E94C716B4
:101F6000C00FD11F1882DF91CF911F910F9108955B
:101F7000FC0180819181009711F00C94821660E041
:101F800070E080E090E0089563E08EEA93E00E94C4
:101F9000831221E045E858E060E08EEA93E00E9479
:101FA000591264E08EEA93E00E94861161E08CE8A9
:101FB00093E00E94831264E08CE893E00E94861113
:101FC00061E08AE693E00E94831264E08AE693E08F
:101FD0000E948611789408951F920F920FB60F9267
:101FE00011242F933F934F935F936F937F938F931E
:101FF0009F93AF93BF93EF93FF93E091C803F0914A
:10200000C903309709F00995FF91EF91BF91AF9106
:102010009F918F917F916F915F914F913F912F9100
:102020000F900FBE0F901F9018951F920F920FB632
:102030000F9211242F933F934F935F936F937F934E
:102040008F939F93AF93BF93EF93FF93E091CA0356
:10205000F091CB03309709F00995FF91EF91BF9173
:10206000AF919F918F917F916F915F914F913F9130
:102070002F910F900FBE0F901F9018951F920F92E7
:102080000FB60F9211242F933F934F935F936F934B
:102090007F938F939F93AF93BF93EF93FF93E091C1
:1020A000C603F091C703309709F00995FF91EF91AE
:1020B000BF91AF919F918F917F916F915F914F9160
:1020C0003F912F910F900FBE0F901F9018951F9268
:1020D0000F920FB60F9211242F933F934F935F935C
:1020E0006F937F938F939F93AF93BF93EF93FF93E0
:1020F000E0918403F0918503309709F00995FF91F1
:10210000EF91BF91AF919F918F917F916F915F916F
:102110004F913F912F910F900FBE0F901F901895E8
:102120001F920F920FB60F9211242F933F934F934C
:102130005F936F937F938F939F93AF93BF93EF932F
:10214000FF93E0918603F0918703309709F009959A
:10215000FF91EF91BF91AF919F918F917F916F917F
:102160005F914F913F912F910F900FBE0F901F9055
:1021700018951F920F920FB60F9211242F933F9331
:102180004F935F936F937F938F939F93AF93BF937F
:10219000EF93FF93E0918203F0918303309709F06E
:1021A0000995FF91EF91BF91AF919F918F917F9191
:1021B0006F915F914F913F912F910F900FBE0F90B4
:1021C0001F9018951F920F920FB60F9211242F9304
:1021D0003F934F935F936F937F938F939F93AF93AF
:1021E000BF93EF93FF93E091A603F091A70330977D
:1021F00009F00995FF91EF91BF91AF919F918F9158
:102200007F916F915F914F913F912F910F900FBEF2
:102210000F901F9018951F920F920FB60F921124D6
:102220002F933F934F935F936F937F938F939F93DE
:10223000AF93BF93EF93FF93E091A803F091A903AD
:10224000309709F00995FF91EF91BF91AF919F9160
:102250008F917F916F915F914F913F912F910F904F
:102260000FBE0F901F9018951F920F920FB60F92EE
:1022700011242F933F934F935F936F937F938F938B
:102280009F93AF93BF93EF93FF93E091A403F091DB
:10229000A503309709F00995FF91EF91BF91AF9198
:1022A0009F918F917F916F915F914F913F912F916E
:1022B0000F900FBE0F901F9018951F920F920FB6A0
:1022C0000F9211242F933F934F935F936F937F93BC
:1022D0008F939F93AF93BF93EF93FF93E091AC03E2
:1022E000F091AD03309709F00995FF91EF91BF91FF
:1022F000AF919F918F917F916F915F914F913F919E
:102300002F910F900FBE0F901F901895DC012C910C
:102310006150223039F4673068F4E62FF0E0E4527F
:10232000FE4F06C0693030F4E62FF0E0ED51FE4F6D
:10233000208101C020E0DC011A96ED91FC911B97F1
:102340008081887F822B80830895CF93DF93EC0177
:102350006883613011F120F0623009F06CC048C030
:102360001B821A8286E490E09D838C838EE690E047
:102370009F838E8384E490E09987888785E490E04A
:102380009B878A871D861C8687E490E09F878E87BF
:10239000198A188A88E490E022C08FE690E09F8333
:1023A0008E8385E890E09B838A8384E890E09D8318
:1023B0008C8380E890E09987888781E890E09B870C
:1023C0008A8789E890E09D878C8788E890E09F87DE
:1023D0008E878BE890E0998B888B8AE890E09B8BC6
:1023E0008A8B1D8A1C8A1F8A1E8A82E0898323C0E9
:1023F0001B821A8282EB90E09D838C8380E790E0C1
:102400009F838E8380EB90E09987888781EB90E0B3
:102410009B878A871D861C8683EB90E09F878E872B
:10242000198A188A84EB90E09B8B8A8B1D8A1C8A00
:102430001F8A1E8A698360E0CE010E948611EA81AC
:10244000FB81309709F01082EC81FD811082198E9A
:10245000188E1B8E1A8E1D8E1C8E1F8E1E8E19A21C
:1024600018A2DF91CF91089551E0411101C050E0D1
:102470006530F0F4E62FF0E0E451FE4F408147FD77
:1024800017C0DC011696ED91FC911797808121E031
:1024900030E0042E01C0220F0A94EAF72095282389
:1024A000852F042E01C0880F0A94EAF7282B208379
:1024B0000895623099F028F4662341F06130C9F440
:1024C00009C0633079F06430A1F410C0FC01518F71
:1024D000408F0FC0FC01538F428F0BC0FC01558F02
:1024E000448F07C0FC01578F468F03C0FC0151A3E6
:1024F00040A3452B11F440E003C0222319F041E032
:102500000C9434120895DC011896ED91FC91199702
:102510003081262F23703C7F232B20831A96ED9148
:10252000FC911B9780816C70660F877E682B60839F
:102530000895FC018181681740F59081992311F07D
:10254000923011F4813049F0662329F0613029F08E
:10255000623031F404C026E003C024E001C022E070
:102560000084F185E02D308183E090E0022E01C0EF
:10257000880F0A94EAF7809583234370022E01C0E6
:10258000440F0A94EAF7842B80830895FC0181812B
:102590006817F8F4611109C0A485B585109709F092
:1025A0005C930684F785E02D13C0613049F4A0895F
:1025B000B189109709F05C930288F389E02D08C077
:1025C000623039F4A489B5895C930688F789E02DD7
:1025D0004083089560E08EEA93E00E94A51161E0D7
:1025E0008CE893E00E94A51162E08AE693E00C94E7
:1025F000A51140D008F481E00895E89409C097FB44
:102600003EF490958095709561957F4F8F4F9F4FC9
:102610009923A9F0F92F96E9BB279395F69587950D
:1026200077956795B795F111F8CFFAF4BB0F11F4D0
:1026300060FF1BC06F5F7F4F8F4F9F4F16C0882377
:1026400011F096E911C0772321F09EE8872F762FAD
:1026500005C0662371F096E8862F70E060E02AF0EE
:102660009A95660F771F881FDAF7880F96958795DA
:1026700097F90895990F0008550FAA0BE0E8FEEFAF
:1026800016161706E807F907C0F012161306E40736
:10269000F50798F0621B730B840B950B39F40A262F
:1026A00061F0232B242B252B21F408950A2609F40D
:1026B000A140A6958FEF811D811D089597F99F6711
:1026C00080E870E060E008959FEF80EC08950024BA
:1026D0000A941616170618060906089500240A9487
:1026E00012161306140605060895092E0394000C0D
:1026F00011F4882352F0BB0F40F4BF2B11F460FF9C
:1027000004C06F5F7F4F8F4F9F4F089557FD9058C4
:10271000440F551F59F05F3F71F04795880F97FBA5
:10272000991F61F09F3F79F087950895121613065F
:102730001406551FF2CF4695F1DF08C0161617068E
:102740001806991FF1CF86957105610508940895C3
:10275000E894BB2766277727CB0197F908950BD01C
:10276000C4CFB5DF28F0BADF18F0952309F0A6CF63
:10277000ABCF1124EECFCADFA0F3959FD1F3950F15
:1027800050E0551F629FF001729FBB27F00DB11DF5
:10279000639FAA27F00DB11DAA1F649F6627B00D85
:1027A000A11D661F829F2227B00DA11D621F739F6E
:1027B000B00DA11D621F839FA00D611D221F749F7C
:1027C0003327A00D611D231F849F600D211D822FC3
:1027D000762F6A2F11249F5750408AF0E1F088230A
:1027E0004AF0EE0FFF1FBB1F661F771F881F915017
:1027F0005040A9F79E3F510570F060CFAACF5F3FD0
:10280000ECF3983EDCF3869577956795B795F79549
:10281000E7959F5FC1F7FE2B880F911D96958795D1
:1028200097F9089597FB072E16F4009407D077FDCB
:1028300009D00E94641407FC05D03EF49095819560
:102840009F4F0895709561957F4F0895A1E21A2ECC
:10285000AA1BBB1BFD010DC0AA1FBB1FEE1FFF1F44
:10286000A217B307E407F50720F0A21BB30BE40B94
:10287000F50B661F771F881F991F1A9469F76095DB
:102880007095809590959B01AC01BD01CF01089595
:10289000052E97FB16F4009407D057FD0DD00E942B
:1028A000261407FC09D07EF490958095709561956B
:1028B0007F4F8F4F9F4F08955095409530952195AC
:1028C0003F4F4F4F5F4F0895AA1BBB1B51E107C0FD
:1028D000AA1FBB1FA617B70710F0A61BB70B881FB0
:1028E000991F5A95A9F780959095BC01CD0108953F
:1028F000EE0FFF1F0590F491E02D09940F931F93A5
:10290000CF93DF938230910510F482E090E0E09164
:10291000D203F091D30320E030E0C0E0D0E023C048
:102920004081518148175907A8F04817590761F4A9
:1029300082819381209719F09B838A832EC0909384
:10294000D3038093D20329C02115310529F0421702
:10295000530710F0A90102C0BE01DF0102811381FB
:10296000EF019A01F8013097D9F62115310509F1E7
:10297000281B390B2430310590F412968D919C91CF
:1029800013976115710521F0FB019383828304C0C5
:102990009093D3038093D203FD01329644C0FD018E
:1029A000E20FF31F81939193225031092D933C93B1
:1029B0003AC02091D0033091D103232B41F42091D0
:1029C0000201309103013093D1032093D003209171
:1029D0000001309101012115310541F42DB73EB7B9
:1029E0004091040150910501241B350BE091D00367
:1029F000F091D103E217F307A0F42E1B3F0B281729
:102A0000390778F0AC014E5F5F4F2417350748F067
:102A10004E0F5F1F5093D1034093D0038193919346
:102A200002C0E0E0F0E0CF01DF91CF911F910F9164
:102A30000895EF92FF920F931F93CF93DF93009728
:102A400009F48FC0DC01129713961C921E92129704
:102A5000E090D203F090D303E114F10489F42D91B6
:102A60003C911197280F391F8091D0039091D10389
:102A70008217930789F5B093D103A093D00371C057
:102A8000E70120E030E001C0EA01CA17DB0738F4B3
:102A90004A815B819E0141155105B1F722C0BC01FD
:102AA00062507109FB01D383C28300811181AC01A3
:102AB000400F511F4C175D0761F448815981400F49
:102AC000511F4E5F5F4F518340834A815B81538327
:102AD00042832115310529F4B093D303A093D20387
:102AE00040C0F901B383A283E90169917991C60FCE
:102AF000D71FAC17BD0779F4DC015E914E91460FEC
:102B0000571F4E5F5F4F5183408312968D919C916A
:102B1000139793838283A0E0B0E002C0D7017C01C9
:102B2000F701828193810097C9F7C701029620813E
:102B30003181820F931F2091D0033091D103281748
:102B4000390779F4109729F41092D3031092D20325
:102B500004C013961C921E921297F092D103E09239
:102B6000D003CDB7DEB7E6E00C948117A0E0B0E06B
:102B7000ECEBF5E10C945F17EC01009729F4CB0125
:102B80000E947E14EC01B8C0DC01A60FB71FFC0147
:102B90003297AE17BF0718F4C0E0D0E0ADC0008197
:102BA000118106171707B0F00530110508F4A4C00D
:102BB000C80104978617970708F49EC002501109B0
:102BC000061B170B0D931D9371836083CD010E942B
:102BD000191592C07B01E01AF10A5C01A00EB11E2A
:102BE000E091D203F091D303812C912C80E090E00E
:102BF0004CC0EA15FB05F1F5408151816A0122E0E4
:102C0000C20ED11CCE14DF04A8F19A012E193F097F
:102C10007901690132E0C30ED11C2EEFA22EBB2434
:102C2000BA94AC0EBD1E25E0C216D10478F04281E4
:102C3000538113965C934E9312971196FC92EE92E9
:102C4000F501718360833A2F2B2F09C00E5F1F4F50
:102C5000040F151FD5010D931C933281238100971A
:102C600021F0FC013283238347C03093D2032093A9
:102C7000D30342C0808191818816990608F44C01E3
:102C800052814381CF01E52FF42F309709F0B1CF66
:102C90008091D0039091D1038A159B05F1F486169B
:102CA0009706D8F48091000190910101009741F4BA
:102CB0008DB79EB72091040130910501821B930BC3
:102CC000A817B90708F068CFB093D103A093D00339
:102CD000FE013297718360830FC0CB010E947E1486
:102CE0007C01009709F458CFA801BE010E94AE16DE
:102CF000CE010E941915E701CE01CDB7DEB7ECE099
:102D00000C947B171F93FC0199278827BC01E8943A
:102D100011911032E9F3193010F01E30C8F31B3254
:102D200051F01D3249F4689406C00E941E17610FCD
:102D3000711D811D911D119110531A30B0F33EF495
:102D400090958095709561957F4F8F4F9F4F1F9104
:102D5000089542EF51E00E94D6160895FB01DC0170
:102D600002C001900D9241505040D8F70895FB01E8
:102D7000DC018D91019080190110D9F3990B089510
:102D8000FB01DC0101900D920020E1F70895FB01A9
:102D9000DC014150504048F001900D920020C9F7ED
:102DA00001C01D9241505040E0F70895FA01A191F1
:102DB000B081009719F41097E1F0CD01DC01CD014D
:102DC0000D90002011F4C00113C0FB0121912223BA
:102DD00019F02015D9F7F3CFFB012191201519F433
:102DE0001E92119606C02223C1F70D900020A1F774
:102DF000D001FA01A193B0830895FB019F01E894EB
:102E00004230C4F04532B4F44A3029F497FB1EF442
:102E1000909581959F4F642F77270E946414805D61
:102E20008A330CF0895D8193CB010097A1F716F4EA
:102E30005DE251931082C9010C944917592F482F14
:102E4000372F262F660F771F881F991F660F771F52
:102E5000881F991F620F731F841F951F660F771FAE
:102E6000881F991F0895F999FECF92BD81BDF89AE8
:102E7000992780B50895262FF999FECF1FBA92BDE4
:102E800081BD20BD0FB6F894FA9AF99A0FBE01964B
:102E90000895DC01FC01672F71917723E1F73297E8
:102EA00004C07C916D9370836291AE17BF07C8F325
:102EB00008952F923F924F925F926F927F928F92DE
:102EC0009F92AF92BF92CF92DF92EF92FF920F93B9
:102ED0001F93CF93DF93CDB7DEB7CA1BDB0B0FB6C3
:102EE000F894DEBF0FBECDBF09942A883988488880
:102EF0005F846E847D848C849B84AA84B984C88416
:102F0000DF80EE80FD800C811B81AA81B981CE0F0C
:102F1000D11D0FB6F894DEBF0FBECDBFED010895F1
:102F200010E0C2E8D0E004C0FE010E947A142296AC
:0A2F3000C438D107C9F7F894FFCFA9
:102F3A000000D403200005040309080706313233D0
:102F4A003435363738392A30230E000F0001017B19
:102F5A00226964223A002C22616C657274223A2238
:102F6A0000227D002A003B004144445F50415353F4
:102F7A00574F5244004348414E47455F50415353CF
:102F8A00574F52440044454C4554455F50415353B2
:102F9A00574F52440044454C4554455F414C4C5FA1
:102FAA0050415353574F524453006D6F74696F6EBB
:102FBA00206465746563746564007375737069630E
:102FCA00696F757320617474656D7074006C6F77C6
:102FDA002062617474657279006C6F6E67206F701D
:102FEA00656E696E6700230000000000C3090A0DC0
:102FFA0075097A09A0098E09000000009B091B0ABD
:10300A00210A0000000096090F0A150A01020304AA
:10301A000506070102000300040506070001020372
:02302A0005009F
:00000001FF
